{"abi":[{"type":"constructor","inputs":[{"name":"_certificateContract","type":"address","internalType":"address"}],"stateMutability":"nonpayable"},{"type":"function","name":"certificateContract","inputs":[],"outputs":[{"name":"","type":"address","internalType":"contract ICertificateValidator"}],"stateMutability":"view"}],"bytecode":{"object":"0x608060405234801561001057600080fd5b5060405161012338038061012383398101604081905261002f91610054565b600080546001600160a01b0319166001600160a01b0392909216919091179055610084565b60006020828403121561006657600080fd5b81516001600160a01b038116811461007d57600080fd5b9392505050565b6091806100926000396000f3fe6080604052348015600f57600080fd5b506004361060285760003560e01c8063779c7ac314602d575b600080fd5b600054603f906001600160a01b031681565b6040516001600160a01b03909116815260200160405180910390f3fea2646970667358221220a511d104c54aa399c9e177b253b0242530d0ae7d79d0ee4cb0f398596631766c64736f6c63430008140033","linkReferences":{}},"methodIdentifiers":{"certificateContract()":"779c7ac3"},"id":18}