{"abi":[{"type":"constructor","inputs":[{"name":"_certificateContract","type":"address","internalType":"address"}],"stateMutability":"nonpayable"},{"type":"function","name":"ADVANCED_TRADER_CERT","inputs":[],"outputs":[{"name":"","type":"string","internalType":"string"}],"stateMutability":"view"},{"type":"function","name":"BASIC_TRADER_CERT","inputs":[],"outputs":[{"name":"","type":"string","internalType":"string"}],"stateMutability":"view"},{"type":"function","name":"balances","inputs":[{"name":"","type":"address","internalType":"address"}],"outputs":[{"name":"","type":"uint256","internalType":"uint256"}],"stateMutability":"view"},{"type":"function","name":"certificateContract","inputs":[],"outputs":[{"name":"","type":"address","internalType":"contract ICertificateValidator"}],"stateMutability":"view"},{"type":"function","name":"placeComplexTrade","inputs":[{"name":"amount","type":"uint256","internalType":"uint256"},{"name":"data","type":"bytes","internalType":"bytes"}],"outputs":[],"stateMutability":"nonpayable"},{"type":"function","name":"placeTrade","inputs":[{"name":"amount","type":"uint256","internalType":"uint256"}],"outputs":[],"stateMutability":"nonpayable"}],"bytecode":{"object":"0x608060405234801561001057600080fd5b506040516107b03803806107b083398101604081905261002f91610054565b600080546001600160a01b0319166001600160a01b0392909216919091179055610084565b60006020828403121561006657600080fd5b81516001600160a01b038116811461007d57600080fd5b9392505050565b61071d806100936000396000f3fe608060405234801561001057600080fd5b50600436106100625760003560e01c806327e235e314610067578063456e7ca31461009a578063779c7ac3146100d75780639063039a14610102578063ab1870f814610117578063d41bee561461014a575b600080fd5b61008761007536600461053b565b60016020526000908152604090205481565b6040519081526020015b60405180910390f35b6100ca60405180604001604052806011815260200170109054d250d7d5149051115497cc8c0c8d607a1b81525081565b60405161009191906105b1565b6000546100ea906001600160a01b031681565b6040516001600160a01b039091168152602001610091565b6101156101103660046105c4565b61015d565b005b6100ca60405180604001604052806014815260200173105115905390d15117d5149051115497cc8c0c8d60621b81525081565b610115610158366004610640565b610351565b6040805180820182526014815273105115905390d15117d5149051115497cc8c0c8d60621b602082015260008054925163c76f473b60e01b815291929091829182916001600160a01b039091169063c76f473b906101c19033908890600401610659565b606060405180830381865afa1580156101de573d6000803e3d6000fd5b505050506040513d601f19601f820116820180604052508101906102029190610685565b925092509250826102525760405162461bcd60e51b815260206004820152601560248201527410d95c9d1a599a58d85d19481b9bdd08199bdd5b99605a1b60448201526064015b60405180910390fd5b6000826002811115610266576102666106d1565b146102ac5760405162461bcd60e51b81526020600482015260166024820152754365727469666963617465206e6f742061637469766560501b6044820152606401610249565b804211156102f25760405162461bcd60e51b815260206004820152601360248201527210d95c9d1a599a58d85d1948195e1c1a5c9959606a1b6044820152606401610249565b336000908152600160205260409020548711156103485760405162461bcd60e51b8152602060048201526014602482015273496e73756666696369656e742062616c616e636560601b6044820152606401610249565b50505050505050565b6040805180820182526011815270109054d250d7d5149051115497cc8c0c8d607a1b602082015260008054925163c76f473b60e01b815291929091829182916001600160a01b039091169063c76f473b906103b29033908890600401610659565b606060405180830381865afa1580156103cf573d6000803e3d6000fd5b505050506040513d601f19601f820116820180604052508101906103f39190610685565b9250925092508261043e5760405162461bcd60e51b815260206004820152601560248201527410d95c9d1a599a58d85d19481b9bdd08199bdd5b99605a1b6044820152606401610249565b6000826002811115610452576104526106d1565b146104985760405162461bcd60e51b81526020600482015260166024820152754365727469666963617465206e6f742061637469766560501b6044820152606401610249565b804211156104de5760405162461bcd60e51b815260206004820152601360248201527210d95c9d1a599a58d85d1948195e1c1a5c9959606a1b6044820152606401610249565b336000908152600160205260409020548511156105345760405162461bcd60e51b8152602060048201526014602482015273496e73756666696369656e742062616c616e636560601b6044820152606401610249565b5050505050565b60006020828403121561054d57600080fd5b81356001600160a01b038116811461056457600080fd5b9392505050565b6000815180845260005b8181101561059157602081850181015186830182015201610575565b506000602082860101526020601f19601f83011685010191505092915050565b602081526000610564602083018461056b565b6000806000604084860312156105d957600080fd5b83359250602084013567ffffffffffffffff808211156105f857600080fd5b818601915086601f83011261060c57600080fd5b81358181111561061b57600080fd5b87602082850101111561062d57600080fd5b6020830194508093505050509250925092565b60006020828403121561065257600080fd5b5035919050565b6001600160a01b038316815260406020820181905260009061067d9083018461056b565b949350505050565b60008060006060848603121561069a57600080fd5b835180151581146106aa57600080fd5b6020850151909350600381106106bf57600080fd5b80925050604084015190509250925092565b634e487b7160e01b600052602160045260246000fdfea264697066735822122033d350e0ec0b826e359eeb3ca05a327b6fd40e78a69df33a623ab7a04f26526264736f6c63430008140033","linkReferences":{}},"methodIdentifiers":{"ADVANCED_TRADER_CERT()":"ab1870f8","BASIC_TRADER_CERT()":"456e7ca3","balances(address)":"27e235e3","certificateContract()":"779c7ac3","placeComplexTrade(uint256,bytes)":"9063039a","placeTrade(uint256)":"d41bee56"},"id":19}