{"abi":[{"type":"constructor","inputs":[],"stateMutability":"nonpayable"},{"type":"function","name":"approve","inputs":[{"name":"to","type":"address","internalType":"address"},{"name":"tokenId","type":"uint256","internalType":"uint256"}],"outputs":[],"stateMutability":"nonpayable"},{"type":"function","name":"balanceOf","inputs":[{"name":"owner","type":"address","internalType":"address"}],"outputs":[{"name":"","type":"uint256","internalType":"uint256"}],"stateMutability":"view"},{"type":"function","name":"checkAndUpdateExpiry","inputs":[{"name":"tokenId","type":"uint256","internalType":"uint256"}],"outputs":[],"stateMutability":"nonpayable"},{"type":"function","name":"checkCertificateStatus","inputs":[{"name":"recipient","type":"address","internalType":"address"},{"name":"certificateId","type":"string","internalType":"string"}],"outputs":[{"name":"exists","type":"bool","internalType":"bool"},{"name":"status","type":"uint8","internalType":"enum Status"},{"name":"expiryTimestamp","type":"uint256","internalType":"uint256"}],"stateMutability":"view"},{"type":"function","name":"generateTokenId","inputs":[{"name":"recipient","type":"address","internalType":"address"},{"name":"certificateId","type":"string","internalType":"string"}],"outputs":[{"name":"","type":"uint256","internalType":"uint256"}],"stateMutability":"pure"},{"type":"function","name":"getApproved","inputs":[{"name":"tokenId","type":"uint256","internalType":"uint256"}],"outputs":[{"name":"","type":"address","internalType":"address"}],"stateMutability":"view"},{"type":"function","name":"getCertificateInfo","inputs":[{"name":"tokenId","type":"uint256","internalType":"uint256"}],"outputs":[{"name":"certificateId","type":"string","internalType":"string"},{"name":"issueTimestamp","type":"uint256","internalType":"uint256"},{"name":"expiryTimestamp","type":"uint256","internalType":"uint256"},{"name":"status","type":"uint8","internalType":"enum Status"},{"name":"level","type":"uint8","internalType":"enum ICertificateMetadata.Level"}],"stateMutability":"view"},{"type":"function","name":"isApprovedForAll","inputs":[{"name":"owner","type":"address","internalType":"address"},{"name":"operator","type":"address","internalType":"address"}],"outputs":[{"name":"","type":"bool","internalType":"bool"}],"stateMutability":"view"},{"type":"function","name":"mint","inputs":[{"name":"recipient","type":"address","internalType":"address"},{"name":"certificateId","type":"string","internalType":"string"},{"name":"level","type":"uint8","internalType":"enum ICertificateMetadata.Level"},{"name":"validityPeriod","type":"uint256","internalType":"uint256"},{"name":"signature","type":"bytes","internalType":"bytes"}],"outputs":[],"stateMutability":"nonpayable"},{"type":"function","name":"name","inputs":[],"outputs":[{"name":"","type":"string","internalType":"string"}],"stateMutability":"view"},{"type":"function","name":"owner","inputs":[],"outputs":[{"name":"","type":"address","internalType":"address"}],"stateMutability":"view"},{"type":"function","name":"ownerOf","inputs":[{"name":"tokenId","type":"uint256","internalType":"uint256"}],"outputs":[{"name":"","type":"address","internalType":"address"}],"stateMutability":"view"},{"type":"function","name":"renounceOwnership","inputs":[],"outputs":[],"stateMutability":"nonpayable"},{"type":"function","name":"safeTransferFrom","inputs":[{"name":"from","type":"address","internalType":"address"},{"name":"to","type":"address","internalType":"address"},{"name":"tokenId","type":"uint256","internalType":"uint256"}],"outputs":[],"stateMutability":"nonpayable"},{"type":"function","name":"safeTransferFrom","inputs":[{"name":"from","type":"address","internalType":"address"},{"name":"to","type":"address","internalType":"address"},{"name":"tokenId","type":"uint256","internalType":"uint256"},{"name":"data","type":"bytes","internalType":"bytes"}],"outputs":[],"stateMutability":"nonpayable"},{"type":"function","name":"setApprovalForAll","inputs":[{"name":"operator","type":"address","internalType":"address"},{"name":"approved","type":"bool","internalType":"bool"}],"outputs":[],"stateMutability":"nonpayable"},{"type":"function","name":"supportsInterface","inputs":[{"name":"interfaceId","type":"bytes4","internalType":"bytes4"}],"outputs":[{"name":"","type":"bool","internalType":"bool"}],"stateMutability":"view"},{"type":"function","name":"symbol","inputs":[],"outputs":[{"name":"","type":"string","internalType":"string"}],"stateMutability":"view"},{"type":"function","name":"tokenURI","inputs":[{"name":"tokenId","type":"uint256","internalType":"uint256"}],"outputs":[{"name":"","type":"string","internalType":"string"}],"stateMutability":"view"},{"type":"function","name":"transferFrom","inputs":[{"name":"from","type":"address","internalType":"address"},{"name":"to","type":"address","internalType":"address"},{"name":"tokenId","type":"uint256","internalType":"uint256"}],"outputs":[],"stateMutability":"nonpayable"},{"type":"function","name":"transferOwnership","inputs":[{"name":"newOwner","type":"address","internalType":"address"}],"outputs":[],"stateMutability":"nonpayable"},{"type":"function","name":"updateStatus","inputs":[{"name":"tokenId","type":"uint256","internalType":"uint256"},{"name":"newStatus","type":"uint8","internalType":"enum Status"}],"outputs":[],"stateMutability":"nonpayable"},{"type":"event","name":"Approval","inputs":[{"name":"owner","type":"address","indexed":true,"internalType":"address"},{"name":"approved","type":"address","indexed":true,"internalType":"address"},{"name":"tokenId","type":"uint256","indexed":true,"internalType":"uint256"}],"anonymous":false},{"type":"event","name":"ApprovalForAll","inputs":[{"name":"owner","type":"address","indexed":true,"internalType":"address"},{"name":"operator","type":"address","indexed":true,"internalType":"address"},{"name":"approved","type":"bool","indexed":false,"internalType":"bool"}],"anonymous":false},{"type":"event","name":"OwnershipTransferred","inputs":[{"name":"previousOwner","type":"address","indexed":true,"internalType":"address"},{"name":"newOwner","type":"address","indexed":true,"internalType":"address"}],"anonymous":false},{"type":"event","name":"Transfer","inputs":[{"name":"from","type":"address","indexed":true,"internalType":"address"},{"name":"to","type":"address","indexed":true,"internalType":"address"},{"name":"tokenId","type":"uint256","indexed":true,"internalType":"uint256"}],"anonymous":false},{"type":"error","name":"ECDSAInvalidSignature","inputs":[]},{"type":"error","name":"ECDSAInvalidSignatureLength","inputs":[{"name":"length","type":"uint256","internalType":"uint256"}]},{"type":"error","name":"ECDSAInvalidSignatureS","inputs":[{"name":"s","type":"bytes32","internalType":"bytes32"}]},{"type":"error","name":"ERC721IncorrectOwner","inputs":[{"name":"sender","type":"address","internalType":"address"},{"name":"tokenId","type":"uint256","internalType":"uint256"},{"name":"owner","type":"address","internalType":"address"}]},{"type":"error","name":"ERC721InsufficientApproval","inputs":[{"name":"operator","type":"address","internalType":"address"},{"name":"tokenId","type":"uint256","internalType":"uint256"}]},{"type":"error","name":"ERC721InvalidApprover","inputs":[{"name":"approver","type":"address","internalType":"address"}]},{"type":"error","name":"ERC721InvalidOperator","inputs":[{"name":"operator","type":"address","internalType":"address"}]},{"type":"error","name":"ERC721InvalidOwner","inputs":[{"name":"owner","type":"address","internalType":"address"}]},{"type":"error","name":"ERC721InvalidReceiver","inputs":[{"name":"receiver","type":"address","internalType":"address"}]},{"type":"error","name":"ERC721InvalidSender","inputs":[{"name":"sender","type":"address","internalType":"address"}]},{"type":"error","name":"ERC721NonexistentToken","inputs":[{"name":"tokenId","type":"uint256","internalType":"uint256"}]},{"type":"error","name":"OwnableInvalidOwner","inputs":[{"name":"owner","type":"address","internalType":"address"}]},{"type":"error","name":"OwnableUnauthorizedAccount","inputs":[{"name":"account","type":"address","internalType":"address"}]}],"bytecode":{"object":"0x60806040523480156200001157600080fd5b50336040518060400160405280600b81526020016a436572746966696361746560a81b8152506040518060400160405280600481526020016310d1549560e21b8152508160009081620000659190620001af565b506001620000748282620001af565b5050506001600160a01b038116620000a657604051631e4fbdf760e01b81526000600482015260240160405180910390fd5b620000b181620000b8565b506200027b565b600680546001600160a01b038381166001600160a01b0319831681179093556040519116919082907f8be0079c531659141344cd1fd0a4f28419497f9722a3daafe3b4186f6b6457e090600090a35050565b634e487b7160e01b600052604160045260246000fd5b600181811c908216806200013557607f821691505b6020821081036200015657634e487b7160e01b600052602260045260246000fd5b50919050565b601f821115620001aa57600081815260208120601f850160051c81016020861015620001855750805b601f850160051c820191505b81811015620001a65782815560010162000191565b5050505b505050565b81516001600160401b03811115620001cb57620001cb6200010a565b620001e381620001dc845462000120565b846200015c565b602080601f8311600181146200021b5760008415620002025750858301515b600019600386901b1c1916600185901b178555620001a6565b600085815260208120601f198616915b828110156200024c578886015182559484019460019091019084016200022b565b50858210156200026b5787850151600019600388901b60f8161c191681555b5050505050600190811b01905550565b611d9d806200028b6000396000f3fe608060405234801561001057600080fd5b50600436106101425760003560e01c80638a765f5c116100b8578063c76f473b1161007c578063c76f473b1461029e578063c87b56dd146102c0578063e620f9e3146102d3578063e985e9c5146102f7578063f2fde38b1461030a578063ff51993d1461031d57600080fd5b80638a765f5c1461024c5780638da5cb5b1461025f57806395d89b4114610270578063a22cb46514610278578063b88d4fde1461028b57600080fd5b806323b872dd1161010a57806323b872dd146101d75780633a1b3d31146101ea57806342842e0e146101fd5780636352211e1461021057806370a0823114610223578063715018a61461024457600080fd5b806301ffc9a71461014757806306fdde031461016f578063081812fc14610184578063095ea7b3146101af5780630fb398c8146101c4575b600080fd5b61015a61015536600461165d565b610330565b60405190151581526020015b60405180910390f35b610177610382565b60405161016691906116ca565b6101976101923660046116dd565b610414565b6040516001600160a01b039091168152602001610166565b6101c26101bd366004611712565b61043d565b005b6101c26101d23660046117df565b61044c565b6101c26101e5366004611876565b61067e565b6101c26101f83660046118b2565b610709565b6101c261020b366004611876565b61076d565b61019761021e3660046116dd565b61078d565b6102366102313660046118e6565b610798565b604051908152602001610166565b6101c26107e0565b6101c261025a3660046116dd565b6107f4565b6006546001600160a01b0316610197565b61017761086b565b6101c2610286366004611901565b61087a565b6101c2610299366004611932565b610885565b6102b16102ac36600461199a565b61089d565b60405161016693929190611a12565b6101776102ce3660046116dd565b610a43565b6102e66102e13660046116dd565b610ab8565b604051610166959493929190611a36565b61015a610305366004611a84565b610c66565b6101c26103183660046118e6565b610c94565b61023661032b36600461199a565b610cd2565b60006001600160e01b031982166380ac58cd60e01b148061036157506001600160e01b03198216635b5e139f60e01b145b8061037c57506301ffc9a760e01b6001600160e01b03198316145b92915050565b60606000805461039190611ab7565b80601f01602080910402602001604051908101604052809291908181526020018280546103bd90611ab7565b801561040a5780601f106103df5761010080835404028352916020019161040a565b820191906000526020600020905b8154815290600101906020018083116103ed57829003601f168201915b5050505050905090565b600061041f82610d06565b506000828152600460205260409020546001600160a01b031661037c565b610448828233610d3f565b5050565b60006104588686610cd2565b905061046381610d4c565b156104b55760405162461bcd60e51b815260206004820152601a60248201527f436572746966696361746520616c72656164792065786973747300000000000060448201526064015b60405180910390fd5b6000868686866040516020016104ce9493929190611af1565b604051602081830303815290604052805190602001209050600061051f827f19457468657265756d205369676e6564204d6573736167653a0a3332000000006000908152601c91909152603c902090565b90506105336006546001600160a01b031690565b6001600160a01b03166105468286610d69565b6001600160a01b0316146105905760405162461bcd60e51b8152602060048201526011602482015270496e76616c6964207369676e617475726560781b60448201526064016104ac565b600061059c8642611b48565b6040805160a0810182528a815242602082015290810182905290915060608101600081526020018860038111156105d5576105d56119e8565b90526000858152600760205260409020815181906105f39082611baf565b50602082015181600101556040820151816002015560608201518160030160006101000a81548160ff02191690836002811115610632576106326119e8565b021790555060808201518160030160016101000a81548160ff02191690836003811115610661576106616119e8565b02179055509050506106738985610d93565b505050505050505050565b6001600160a01b0382166106a857604051633250574960e11b8152600060048201526024016104ac565b60006106b5838333610df8565b9050836001600160a01b0316816001600160a01b031614610703576040516364283d7b60e01b81526001600160a01b03808616600483015260248201849052821660448201526064016104ac565b50505050565b610711610ef1565b61071a82610d4c565b6107365760405162461bcd60e51b81526004016104ac90611c6f565b6000828152600760205260409020600301805482919060ff19166001836002811115610764576107646119e8565b02179055505050565b61078883838360405180602001604052806000815250610885565b505050565b600061037c82610d06565b60006001600160a01b0382166107c4576040516322718ad960e21b8152600060048201526024016104ac565b506001600160a01b031660009081526003602052604090205490565b6107e8610ef1565b6107f26000610f1e565b565b6107fd81610d4c565b6108195760405162461bcd60e51b81526004016104ac90611c6f565b600081815260076020526040812090600382015460ff166002811115610841576108416119e8565b1480156108515750806002015442115b15610448576003810180546001919060ff19168280610764565b60606001805461039190611ab7565b610448338383610f70565b61089084848461067e565b610703338585858561100f565b6000806000806108ad8686610cd2565b90506108b881610d4c565b6108ce5760006001600093509350935050610a3c565b600081815260076020526040808220815160a081019092528054829082906108f590611ab7565b80601f016020809104026020016040519081016040528092919081815260200182805461092190611ab7565b801561096e5780601f106109435761010080835404028352916020019161096e565b820191906000526020600020905b81548152906001019060200180831161095157829003601f168201915b5050509183525050600182015460208201526002808301546040830152600383015460609092019160ff16908111156109a9576109a96119e8565b60028111156109ba576109ba6119e8565b81526020016003820160019054906101000a900460ff1660038111156109e2576109e26119e8565b60038111156109f3576109f36119e8565b90525060608101519091506000816002811115610a1257610a126119e8565b148015610a225750816040015142115b15610a2b575060015b604090910151600195509093509150505b9250925092565b6060610a4e82610d06565b506000610a6660408051602081019091526000815290565b90506000815111610a865760405180602001604052806000815250610ab1565b80610a908461113a565b604051602001610aa1929190611ca6565b6040516020818303038152906040525b9392505050565b6060600080600080610ac986610d4c565b610ae55760405162461bcd60e51b81526004016104ac90611c6f565b600086815260076020526040808220815160a08101909252805482908290610b0c90611ab7565b80601f0160208091040260200160405190810160405280929190818152602001828054610b3890611ab7565b8015610b855780601f10610b5a57610100808354040283529160200191610b85565b820191906000526020600020905b815481529060010190602001808311610b6857829003601f168201915b5050509183525050600182015460208201526002808301546040830152600383015460609092019160ff1690811115610bc057610bc06119e8565b6002811115610bd157610bd16119e8565b81526020016003820160019054906101000a900460ff166003811115610bf957610bf96119e8565b6003811115610c0a57610c0a6119e8565b90525060608101519091506000816002811115610c2957610c296119e8565b148015610c395750816040015142115b15610c42575060015b815160208301516040840151608090940151919a9099509297509095509350915050565b6001600160a01b03918216600090815260056020908152604080832093909416825291909152205460ff1690565b610c9c610ef1565b6001600160a01b038116610cc657604051631e4fbdf760e01b8152600060048201526024016104ac565b610ccf81610f1e565b50565b60008282604051602001610ce7929190611cd5565b60408051601f1981840301815291905280516020909101209392505050565b6000818152600260205260408120546001600160a01b03168061037c57604051637e27328960e01b8152600481018490526024016104ac565b61078883838360016111cd565b600080610d588361078d565b6001600160a01b0316141592915050565b600080600080610d7986866112d3565b925092509250610d89828261131d565b5090949350505050565b6001600160a01b038216610dbd57604051633250574960e11b8152600060048201526024016104ac565b6000610dcb83836000610df8565b90506001600160a01b03811615610788576040516339e3563760e11b8152600060048201526024016104ac565b6000828152600260205260408120546001600160a01b0390811690831615610e2557610e258184866113d6565b6001600160a01b03811615610e6357610e426000856000806111cd565b6001600160a01b038116600090815260036020526040902080546000190190555b6001600160a01b03851615610e92576001600160a01b0385166000908152600360205260409020805460010190555b60008481526002602052604080822080546001600160a01b0319166001600160a01b0389811691821790925591518793918516917fddf252ad1be2c89b69c2b068fc378daa952ba7f163c4a11628f55a4df523b3ef91a4949350505050565b6006546001600160a01b031633146107f25760405163118cdaa760e01b81523360048201526024016104ac565b600680546001600160a01b038381166001600160a01b0319831681179093556040519116919082907f8be0079c531659141344cd1fd0a4f28419497f9722a3daafe3b4186f6b6457e090600090a35050565b6001600160a01b038216610fa257604051630b61174360e31b81526001600160a01b03831660048201526024016104ac565b6001600160a01b03838116600081815260056020908152604080832094871680845294825291829020805460ff191686151590811790915591519182527f17307eab39ab6107e8899845ad3d59bd9653f200f220920489ca2b5937696c31910160405180910390a3505050565b6001600160a01b0383163b1561113357604051630a85bd0160e11b81526001600160a01b0384169063150b7a0290611051908890889087908790600401611d0d565b6020604051808303816000875af192505050801561108c575060408051601f3d908101601f1916820190925261108991810190611d4a565b60015b6110f5573d8080156110ba576040519150601f19603f3d011682016040523d82523d6000602084013e6110bf565b606091505b5080516000036110ed57604051633250574960e11b81526001600160a01b03851660048201526024016104ac565b805181602001fd5b6001600160e01b03198116630a85bd0160e11b1461113157604051633250574960e11b81526001600160a01b03851660048201526024016104ac565b505b5050505050565b606060006111478361143a565b600101905060008167ffffffffffffffff8111156111675761116761173c565b6040519080825280601f01601f191660200182016040528015611191576020820181803683370190505b5090508181016020015b600019016f181899199a1a9b1b9c1cb0b131b232b360811b600a86061a8153600a850494508461119b57509392505050565b80806111e157506001600160a01b03821615155b156112a35760006111f184610d06565b90506001600160a01b0383161580159061121d5750826001600160a01b0316816001600160a01b031614155b8015611230575061122e8184610c66565b155b156112595760405163a9fbf51f60e01b81526001600160a01b03841660048201526024016104ac565b81156112a15783856001600160a01b0316826001600160a01b03167f8c5be1e5ebec7d5bd14f71427d1e84f3dd0314c0f7b2291e5b200ac8c7c3b92560405160405180910390a45b505b5050600090815260046020526040902080546001600160a01b0319166001600160a01b0392909216919091179055565b6000806000835160410361130d5760208401516040850151606086015160001a6112ff88828585611512565b955095509550505050610a3c565b5050815160009150600290610a3c565b6000826003811115611331576113316119e8565b0361133a575050565b600182600381111561134e5761134e6119e8565b0361136c5760405163f645eedf60e01b815260040160405180910390fd5b6002826003811115611380576113806119e8565b036113a15760405163fce698f760e01b8152600481018290526024016104ac565b60038260038111156113b5576113b56119e8565b03610448576040516335e2f38360e21b8152600481018290526024016104ac565b6113e18383836115e1565b610788576001600160a01b03831661140f57604051637e27328960e01b8152600481018290526024016104ac565b60405163177e802f60e01b81526001600160a01b0383166004820152602481018290526044016104ac565b60008072184f03e93ff9f4daa797ed6e38ed64bf6a1f0160401b83106114795772184f03e93ff9f4daa797ed6e38ed64bf6a1f0160401b830492506040015b6d04ee2d6d415b85acef810000000083106114a5576d04ee2d6d415b85acef8100000000830492506020015b662386f26fc1000083106114c357662386f26fc10000830492506010015b6305f5e10083106114db576305f5e100830492506008015b61271083106114ef57612710830492506004015b60648310611501576064830492506002015b600a831061037c5760010192915050565b600080807f7fffffffffffffffffffffffffffffff5d576e7357a4501ddfe92f46681b20a084111561154d57506000915060039050826115d7565b604080516000808252602082018084528a905260ff891692820192909252606081018790526080810186905260019060a0016020604051602081039080840390855afa1580156115a1573d6000803e3d6000fd5b5050604051601f1901519150506001600160a01b0381166115cd575060009250600191508290506115d7565b9250600091508190505b9450945094915050565b60006001600160a01b0383161580159061163f5750826001600160a01b0316846001600160a01b0316148061161b575061161b8484610c66565b8061163f57506000828152600460205260409020546001600160a01b038481169116145b949350505050565b6001600160e01b031981168114610ccf57600080fd5b60006020828403121561166f57600080fd5b8135610ab181611647565b60005b8381101561169557818101518382015260200161167d565b50506000910152565b600081518084526116b681602086016020860161167a565b601f01601f19169290920160200192915050565b602081526000610ab1602083018461169e565b6000602082840312156116ef57600080fd5b5035919050565b80356001600160a01b038116811461170d57600080fd5b919050565b6000806040838503121561172557600080fd5b61172e836116f6565b946020939093013593505050565b634e487b7160e01b600052604160045260246000fd5b600082601f83011261176357600080fd5b813567ffffffffffffffff8082111561177e5761177e61173c565b604051601f8301601f19908116603f011681019082821181831017156117a6576117a661173c565b816040528381528660208588010111156117bf57600080fd5b836020870160208301376000602085830101528094505050505092915050565b600080600080600060a086880312156117f757600080fd5b611800866116f6565b9450602086013567ffffffffffffffff8082111561181d57600080fd5b61182989838a01611752565b9550604088013591506004821061183f57600080fd5b909350606087013592506080870135908082111561185c57600080fd5b5061186988828901611752565b9150509295509295909350565b60008060006060848603121561188b57600080fd5b611894846116f6565b92506118a2602085016116f6565b9150604084013590509250925092565b600080604083850312156118c557600080fd5b823591506020830135600381106118db57600080fd5b809150509250929050565b6000602082840312156118f857600080fd5b610ab1826116f6565b6000806040838503121561191457600080fd5b61191d836116f6565b9150602083013580151581146118db57600080fd5b6000806000806080858703121561194857600080fd5b611951856116f6565b935061195f602086016116f6565b925060408501359150606085013567ffffffffffffffff81111561198257600080fd5b61198e87828801611752565b91505092959194509250565b600080604083850312156119ad57600080fd5b6119b6836116f6565b9150602083013567ffffffffffffffff8111156119d257600080fd5b6119de85828601611752565b9150509250929050565b634e487b7160e01b600052602160045260246000fd5b60038110611a0e57611a0e6119e8565b9052565b831515815260608101611a2860208301856119fe565b826040830152949350505050565b60a081526000611a4960a083018861169e565b9050856020830152846040830152611a6460608301856119fe565b60048310611a7457611a746119e8565b8260808301529695505050505050565b60008060408385031215611a9757600080fd5b611aa0836116f6565b9150611aae602084016116f6565b90509250929050565b600181811c90821680611acb57607f821691505b602082108103611aeb57634e487b7160e01b600052602260045260246000fd5b50919050565b6bffffffffffffffffffffffff198560601b16815260008451611b1b81601485016020890161167a565b820160048510611b2d57611b2d6119e8565b60f89490941b60148501525050601582015260350192915050565b8082018082111561037c57634e487b7160e01b600052601160045260246000fd5b601f82111561078857600081815260208120601f850160051c81016020861015611b905750805b601f850160051c820191505b8181101561113157828155600101611b9c565b815167ffffffffffffffff811115611bc957611bc961173c565b611bdd81611bd78454611ab7565b84611b69565b602080601f831160018114611c125760008415611bfa5750858301515b600019600386901b1c1916600185901b178555611131565b600085815260208120601f198616915b82811015611c4157888601518255948401946001909101908401611c22565b5085821015611c5f5787850151600019600388901b60f8161c191681555b5050505050600190811b01905550565b6020808252601a908201527f436572746966696361746520646f6573206e6f74206578697374000000000000604082015260600190565b60008351611cb881846020880161167a565b835190830190611ccc81836020880161167a565b01949350505050565b6bffffffffffffffffffffffff198360601b16815260008251611cff81601485016020870161167a565b919091016014019392505050565b6001600160a01b0385811682528416602082015260408101839052608060608201819052600090611d409083018461169e565b9695505050505050565b600060208284031215611d5c57600080fd5b8151610ab18161164756fea2646970667358221220aa3a461ba56af3323deb98d46b24647c7eb8b9fa7d30bca8178e42fd1a5c9be264736f6c63430008140033","linkReferences":{}},"methodIdentifiers":{"approve(address,uint256)":"095ea7b3","balanceOf(address)":"70a08231","checkAndUpdateExpiry(uint256)":"8a765f5c","checkCertificateStatus(address,string)":"c76f473b","generateTokenId(address,string)":"ff51993d","getApproved(uint256)":"081812fc","getCertificateInfo(uint256)":"e620f9e3","isApprovedForAll(address,address)":"e985e9c5","mint(address,string,uint8,uint256,bytes)":"0fb398c8","name()":"06fdde03","owner()":"8da5cb5b","ownerOf(uint256)":"6352211e","renounceOwnership()":"715018a6","safeTransferFrom(address,address,uint256)":"42842e0e","safeTransferFrom(address,address,uint256,bytes)":"b88d4fde","setApprovalForAll(address,bool)":"a22cb465","supportsInterface(bytes4)":"01ffc9a7","symbol()":"95d89b41","tokenURI(uint256)":"c87b56dd","transferFrom(address,address,uint256)":"23b872dd","transferOwnership(address)":"f2fde38b","updateStatus(uint256,uint8)":"3a1b3d31"},"id":17}