{"abi":[{"type":"constructor","inputs":[],"stateMutability":"nonpayable"},{"type":"function","name":"approve","inputs":[{"name":"to","type":"address","internalType":"address"},{"name":"tokenId","type":"uint256","internalType":"uint256"}],"outputs":[],"stateMutability":"nonpayable"},{"type":"function","name":"balanceOf","inputs":[{"name":"owner","type":"address","internalType":"address"}],"outputs":[{"name":"","type":"uint256","internalType":"uint256"}],"stateMutability":"view"},{"type":"function","name":"checkAndUpdateExpiry","inputs":[{"name":"tokenId","type":"uint256","internalType":"uint256"}],"outputs":[],"stateMutability":"nonpayable"},{"type":"function","name":"checkCertificateStatus","inputs":[{"name":"recipient","type":"address","internalType":"address"},{"name":"certificateId","type":"string","internalType":"string"}],"outputs":[{"name":"exists","type":"bool","internalType":"bool"},{"name":"status","type":"uint8","internalType":"enum Status"},{"name":"expiryTimestamp","type":"uint256","internalType":"uint256"}],"stateMutability":"view"},{"type":"function","name":"generateTokenId","inputs":[{"name":"recipient","type":"address","internalType":"address"},{"name":"certificateId","type":"string","internalType":"string"}],"outputs":[{"name":"","type":"uint256","internalType":"uint256"}],"stateMutability":"pure"},{"type":"function","name":"getApproved","inputs":[{"name":"tokenId","type":"uint256","internalType":"uint256"}],"outputs":[{"name":"","type":"address","internalType":"address"}],"stateMutability":"view"},{"type":"function","name":"getCertificateInfo","inputs":[{"name":"tokenId","type":"uint256","internalType":"uint256"}],"outputs":[{"name":"certificateId","type":"string","internalType":"string"},{"name":"issueTimestamp","type":"uint256","internalType":"uint256"},{"name":"expiryTimestamp","type":"uint256","internalType":"uint256"},{"name":"status","type":"uint8","internalType":"enum Status"},{"name":"level","type":"uint8","internalType":"enum ICertificateMetadata.Level"}],"stateMutability":"view"},{"type":"function","name":"isApprovedForAll","inputs":[{"name":"owner","type":"address","internalType":"address"},{"name":"operator","type":"address","internalType":"address"}],"outputs":[{"name":"","type":"bool","internalType":"bool"}],"stateMutability":"view"},{"type":"function","name":"mint","inputs":[{"name":"recipient","type":"address","internalType":"address"},{"name":"certificateId","type":"string","internalType":"string"},{"name":"level","type":"uint8","internalType":"enum ICertificateMetadata.Level"},{"name":"validityPeriod","type":"uint256","internalType":"uint256"},{"name":"signature","type":"bytes","internalType":"bytes"}],"outputs":[],"stateMutability":"nonpayable"},{"type":"function","name":"name","inputs":[],"outputs":[{"name":"","type":"string","internalType":"string"}],"stateMutability":"view"},{"type":"function","name":"owner","inputs":[],"outputs":[{"name":"","type":"address","internalType":"address"}],"stateMutability":"view"},{"type":"function","name":"ownerOf","inputs":[{"name":"tokenId","type":"uint256","internalType":"uint256"}],"outputs":[{"name":"","type":"address","internalType":"address"}],"stateMutability":"view"},{"type":"function","name":"renounceOwnership","inputs":[],"outputs":[],"stateMutability":"nonpayable"},{"type":"function","name":"safeTransferFrom","inputs":[{"name":"from","type":"address","internalType":"address"},{"name":"to","type":"address","internalType":"address"},{"name":"tokenId","type":"uint256","internalType":"uint256"}],"outputs":[],"stateMutability":"nonpayable"},{"type":"function","name":"safeTransferFrom","inputs":[{"name":"from","type":"address","internalType":"address"},{"name":"to","type":"address","internalType":"address"},{"name":"tokenId","type":"uint256","internalType":"uint256"},{"name":"data","type":"bytes","internalType":"bytes"}],"outputs":[],"stateMutability":"nonpayable"},{"type":"function","name":"setApprovalForAll","inputs":[{"name":"operator","type":"address","internalType":"address"},{"name":"approved","type":"bool","internalType":"bool"}],"outputs":[],"stateMutability":"nonpayable"},{"type":"function","name":"supportsInterface","inputs":[{"name":"interfaceId","type":"bytes4","internalType":"bytes4"}],"outputs":[{"name":"","type":"bool","internalType":"bool"}],"stateMutability":"view"},{"type":"function","name":"symbol","inputs":[],"outputs":[{"name":"","type":"string","internalType":"string"}],"stateMutability":"view"},{"type":"function","name":"tokenURI","inputs":[{"name":"tokenId","type":"uint256","internalType":"uint256"}],"outputs":[{"name":"","type":"string","internalType":"string"}],"stateMutability":"view"},{"type":"function","name":"transferFrom","inputs":[{"name":"from","type":"address","internalType":"address"},{"name":"to","type":"address","internalType":"address"},{"name":"tokenId","type":"uint256","internalType":"uint256"}],"outputs":[],"stateMutability":"nonpayable"},{"type":"function","name":"transferOwnership","inputs":[{"name":"newOwner","type":"address","internalType":"address"}],"outputs":[],"stateMutability":"nonpayable"},{"type":"function","name":"updateStatus","inputs":[{"name":"tokenId","type":"uint256","internalType":"uint256"},{"name":"newStatus","type":"uint8","internalType":"enum Status"}],"outputs":[],"stateMutability":"nonpayable"},{"type":"event","name":"Approval","inputs":[{"name":"owner","type":"address","indexed":true,"internalType":"address"},{"name":"approved","type":"address","indexed":true,"internalType":"address"},{"name":"tokenId","type":"uint256","indexed":true,"internalType":"uint256"}],"anonymous":false},{"type":"event","name":"ApprovalForAll","inputs":[{"name":"owner","type":"address","indexed":true,"internalType":"address"},{"name":"operator","type":"address","indexed":true,"internalType":"address"},{"name":"approved","type":"bool","indexed":false,"internalType":"bool"}],"anonymous":false},{"type":"event","name":"OwnershipTransferred","inputs":[{"name":"previousOwner","type":"address","indexed":true,"internalType":"address"},{"name":"newOwner","type":"address","indexed":true,"internalType":"address"}],"anonymous":false},{"type":"event","name":"Transfer","inputs":[{"name":"from","type":"address","indexed":true,"internalType":"address"},{"name":"to","type":"address","indexed":true,"internalType":"address"},{"name":"tokenId","type":"uint256","indexed":true,"internalType":"uint256"}],"anonymous":false},{"type":"error","name":"ECDSAInvalidSignature","inputs":[]},{"type":"error","name":"ECDSAInvalidSignatureLength","inputs":[{"name":"length","type":"uint256","internalType":"uint256"}]},{"type":"error","name":"ECDSAInvalidSignatureS","inputs":[{"name":"s","type":"bytes32","internalType":"bytes32"}]},{"type":"error","name":"ERC721IncorrectOwner","inputs":[{"name":"sender","type":"address","internalType":"address"},{"name":"tokenId","type":"uint256","internalType":"uint256"},{"name":"owner","type":"address","internalType":"address"}]},{"type":"error","name":"ERC721InsufficientApproval","inputs":[{"name":"operator","type":"address","internalType":"address"},{"name":"tokenId","type":"uint256","internalType":"uint256"}]},{"type":"error","name":"ERC721InvalidApprover","inputs":[{"name":"approver","type":"address","internalType":"address"}]},{"type":"error","name":"ERC721InvalidOperator","inputs":[{"name":"operator","type":"address","internalType":"address"}]},{"type":"error","name":"ERC721InvalidOwner","inputs":[{"name":"owner","type":"address","internalType":"address"}]},{"type":"error","name":"ERC721InvalidReceiver","inputs":[{"name":"receiver","type":"address","internalType":"address"}]},{"type":"error","name":"ERC721InvalidSender","inputs":[{"name":"sender","type":"address","internalType":"address"}]},{"type":"error","name":"ERC721NonexistentToken","inputs":[{"name":"tokenId","type":"uint256","internalType":"uint256"}]},{"type":"error","name":"OwnableInvalidOwner","inputs":[{"name":"owner","type":"address","internalType":"address"}]},{"type":"error","name":"OwnableUnauthorizedAccount","inputs":[{"name":"account","type":"address","internalType":"address"}]}],"bytecode":{"object":"0x60806040523480156200001157600080fd5b50336040518060400160405280600b81526020016a436572746966696361746560a81b8152506040518060400160405280600481526020016310d1549560e21b8152508160009081620000659190620001af565b506001620000748282620001af565b5050506001600160a01b038116620000a657604051631e4fbdf760e01b81526000600482015260240160405180910390fd5b620000b181620000b8565b506200027b565b600680546001600160a01b038381166001600160a01b0319831681179093556040519116919082907f8be0079c531659141344cd1fd0a4f28419497f9722a3daafe3b4186f6b6457e090600090a35050565b634e487b7160e01b600052604160045260246000fd5b600181811c908216806200013557607f821691505b6020821081036200015657634e487b7160e01b600052602260045260246000fd5b50919050565b601f821115620001aa57600081815260208120601f850160051c81016020861015620001855750805b601f850160051c820191505b81811015620001a65782815560010162000191565b5050505b505050565b81516001600160401b03811115620001cb57620001cb6200010a565b620001e381620001dc845462000120565b846200015c565b602080601f8311600181146200021b5760008415620002025750858301515b600019600386901b1c1916600185901b178555620001a6565b600085815260208120601f198616915b828110156200024c578886015182559484019460019091019084016200022b565b50858210156200026b5787850151600019600388901b60f8161c191681555b5050505050600190811b01905550565b611db7806200028b6000396000f3fe608060405234801561001057600080fd5b50600436106101425760003560e01c80638a765f5c116100b8578063c76f473b1161007c578063c76f473b1461029e578063c87b56dd146102c0578063e620f9e3146102d3578063e985e9c5146102f7578063f2fde38b1461030a578063ff51993d1461031d57600080fd5b80638a765f5c1461024c5780638da5cb5b1461025f57806395d89b4114610270578063a22cb46514610278578063b88d4fde1461028b57600080fd5b806323b872dd1161010a57806323b872dd146101d75780633a1b3d31146101ea57806342842e0e146101fd5780636352211e1461021057806370a0823114610223578063715018a61461024457600080fd5b806301ffc9a71461014757806306fdde031461016f578063081812fc14610184578063095ea7b3146101af5780630fb398c8146101c4575b600080fd5b61015a610155366004611677565b610330565b60405190151581526020015b60405180910390f35b610177610382565b60405161016691906116e4565b6101976101923660046116f7565b610414565b6040516001600160a01b039091168152602001610166565b6101c26101bd36600461172c565b61043d565b005b6101c26101d23660046117f9565b61044c565b6101c26101e5366004611890565b610687565b6101c26101f83660046118cc565b610712565b6101c261020b366004611890565b61077f565b61019761021e3660046116f7565b61079f565b610236610231366004611900565b6107aa565b604051908152602001610166565b6101c26107f2565b6101c261025a3660046116f7565b610806565b6006546001600160a01b0316610197565b610177610886565b6101c261028636600461191b565b610895565b6101c261029936600461194c565b6108a0565b6102b16102ac3660046119b4565b6108b8565b60405161016693929190611a2c565b6101776102ce3660046116f7565b610a68565b6102e66102e13660046116f7565b610add565b604051610166959493929190611a50565b61015a610305366004611a9e565b610c9d565b6101c2610318366004611900565b610ccb565b61023661032b3660046119b4565b610d09565b60006001600160e01b031982166380ac58cd60e01b148061036157506001600160e01b03198216635b5e139f60e01b145b8061037c57506301ffc9a760e01b6001600160e01b03198316145b92915050565b60606000805461039190611ad1565b80601f01602080910402602001604051908101604052809291908181526020018280546103bd90611ad1565b801561040a5780601f106103df5761010080835404028352916020019161040a565b820191906000526020600020905b8154815290600101906020018083116103ed57829003601f168201915b5050505050905090565b600061041f82610d3d565b506000828152600460205260409020546001600160a01b031661037c565b610448828233610d76565b5050565b60006104588686610d09565b600081815260076020526040902060010154909150156104bf5760405162461bcd60e51b815260206004820152601a60248201527f436572746966696361746520616c72656164792065786973747300000000000060448201526064015b60405180910390fd5b6104c98682610d83565b6000868686866040516020016104e29493929190611b0b565b6040516020818303038152906040528051906020012090506000610533827f19457468657265756d205369676e6564204d6573736167653a0a3332000000006000908152601c91909152603c902090565b90506105476006546001600160a01b031690565b6001600160a01b031661055a8286610de8565b6001600160a01b0316146105a45760405162461bcd60e51b8152602060048201526011602482015270496e76616c6964207369676e617475726560781b60448201526064016104b6565b60006105b08642611b62565b6040805160a0810182528a815242602082015290810182905290915060608101600081526020018860038111156105e9576105e9611a02565b90526000858152600760205260409020815181906106079082611bc9565b50602082015181600101556040820151816002015560608201518160030160006101000a81548160ff0219169083600281111561064657610646611a02565b021790555060808201518160030160016101000a81548160ff0219169083600381111561067557610675611a02565b02179055505050505050505050505050565b6001600160a01b0382166106b157604051633250574960e11b8152600060048201526024016104b6565b60006106be838333610e12565b9050836001600160a01b0316816001600160a01b03161461070c576040516364283d7b60e01b81526001600160a01b03808616600483015260248201849052821660448201526064016104b6565b50505050565b61071a610f0b565b6000828152600760205260409020600101546107485760405162461bcd60e51b81526004016104b690611c89565b6000828152600760205260409020600301805482919060ff1916600183600281111561077657610776611a02565b02179055505050565b61079a838383604051806020016040528060008152506108a0565b505050565b600061037c82610d3d565b60006001600160a01b0382166107d6576040516322718ad960e21b8152600060048201526024016104b6565b506001600160a01b031660009081526003602052604090205490565b6107fa610f0b565b6108046000610f38565b565b6000818152600760205260409020600101546108345760405162461bcd60e51b81526004016104b690611c89565b600081815260076020526040812090600382015460ff16600281111561085c5761085c611a02565b14801561086c5750806002015442115b15610448576003810180546001919060ff19168280610776565b60606001805461039190611ad1565b610448338383610f8a565b6108ab848484610687565b61070c3385858585611029565b6000806000806108c88686610d09565b6000818152600760205260409020600101549091506108f35760006001600093509350935050610a61565b600081815260076020526040808220815160a0810190925280548290829061091a90611ad1565b80601f016020809104026020016040519081016040528092919081815260200182805461094690611ad1565b80156109935780601f1061096857610100808354040283529160200191610993565b820191906000526020600020905b81548152906001019060200180831161097657829003601f168201915b5050509183525050600182015460208201526002808301546040830152600383015460609092019160ff16908111156109ce576109ce611a02565b60028111156109df576109df611a02565b81526020016003820160019054906101000a900460ff166003811115610a0757610a07611a02565b6003811115610a1857610a18611a02565b90525060608101519091506000816002811115610a3757610a37611a02565b148015610a475750816040015142115b15610a50575060015b604090910151600195509093509150505b9250925092565b6060610a7382610d3d565b506000610a8b60408051602081019091526000815290565b90506000815111610aab5760405180602001604052806000815250610ad6565b80610ab584611154565b604051602001610ac6929190611cc0565b6040516020818303038152906040525b9392505050565b6060600080600080610b0086600090815260076020526040902060010154151590565b610b1c5760405162461bcd60e51b81526004016104b690611c89565b600086815260076020526040808220815160a08101909252805482908290610b4390611ad1565b80601f0160208091040260200160405190810160405280929190818152602001828054610b6f90611ad1565b8015610bbc5780601f10610b9157610100808354040283529160200191610bbc565b820191906000526020600020905b815481529060010190602001808311610b9f57829003601f168201915b5050509183525050600182015460208201526002808301546040830152600383015460609092019160ff1690811115610bf757610bf7611a02565b6002811115610c0857610c08611a02565b81526020016003820160019054906101000a900460ff166003811115610c3057610c30611a02565b6003811115610c4157610c41611a02565b90525060608101519091506000816002811115610c6057610c60611a02565b148015610c705750816040015142115b15610c79575060015b815160208301516040840151608090940151919a9099509297509095509350915050565b6001600160a01b03918216600090815260056020908152604080832093909416825291909152205460ff1690565b610cd3610f0b565b6001600160a01b038116610cfd57604051631e4fbdf760e01b8152600060048201526024016104b6565b610d0681610f38565b50565b60008282604051602001610d1e929190611cef565b60408051601f1981840301815291905280516020909101209392505050565b6000818152600260205260408120546001600160a01b03168061037c57604051637e27328960e01b8152600481018490526024016104b6565b61079a83838360016111e7565b6001600160a01b038216610dad57604051633250574960e11b8152600060048201526024016104b6565b6000610dbb83836000610e12565b90506001600160a01b0381161561079a576040516339e3563760e11b8152600060048201526024016104b6565b600080600080610df886866112ed565b925092509250610e088282611337565b5090949350505050565b6000828152600260205260408120546001600160a01b0390811690831615610e3f57610e3f8184866113f0565b6001600160a01b03811615610e7d57610e5c6000856000806111e7565b6001600160a01b038116600090815260036020526040902080546000190190555b6001600160a01b03851615610eac576001600160a01b0385166000908152600360205260409020805460010190555b60008481526002602052604080822080546001600160a01b0319166001600160a01b0389811691821790925591518793918516917fddf252ad1be2c89b69c2b068fc378daa952ba7f163c4a11628f55a4df523b3ef91a4949350505050565b6006546001600160a01b031633146108045760405163118cdaa760e01b81523360048201526024016104b6565b600680546001600160a01b038381166001600160a01b0319831681179093556040519116919082907f8be0079c531659141344cd1fd0a4f28419497f9722a3daafe3b4186f6b6457e090600090a35050565b6001600160a01b038216610fbc57604051630b61174360e31b81526001600160a01b03831660048201526024016104b6565b6001600160a01b03838116600081815260056020908152604080832094871680845294825291829020805460ff191686151590811790915591519182527f17307eab39ab6107e8899845ad3d59bd9653f200f220920489ca2b5937696c31910160405180910390a3505050565b6001600160a01b0383163b1561114d57604051630a85bd0160e11b81526001600160a01b0384169063150b7a029061106b908890889087908790600401611d27565b6020604051808303816000875af19250505080156110a6575060408051601f3d908101601f191682019092526110a391810190611d64565b60015b61110f573d8080156110d4576040519150601f19603f3d011682016040523d82523d6000602084013e6110d9565b606091505b50805160000361110757604051633250574960e11b81526001600160a01b03851660048201526024016104b6565b805181602001fd5b6001600160e01b03198116630a85bd0160e11b1461114b57604051633250574960e11b81526001600160a01b03851660048201526024016104b6565b505b5050505050565b6060600061116183611454565b600101905060008167ffffffffffffffff81111561118157611181611756565b6040519080825280601f01601f1916602001820160405280156111ab576020820181803683370190505b5090508181016020015b600019016f181899199a1a9b1b9c1cb0b131b232b360811b600a86061a8153600a85049450846111b557509392505050565b80806111fb57506001600160a01b03821615155b156112bd57600061120b84610d3d565b90506001600160a01b038316158015906112375750826001600160a01b0316816001600160a01b031614155b801561124a57506112488184610c9d565b155b156112735760405163a9fbf51f60e01b81526001600160a01b03841660048201526024016104b6565b81156112bb5783856001600160a01b0316826001600160a01b03167f8c5be1e5ebec7d5bd14f71427d1e84f3dd0314c0f7b2291e5b200ac8c7c3b92560405160405180910390a45b505b5050600090815260046020526040902080546001600160a01b0319166001600160a01b0392909216919091179055565b600080600083516041036113275760208401516040850151606086015160001a6113198882858561152c565b955095509550505050610a61565b5050815160009150600290610a61565b600082600381111561134b5761134b611a02565b03611354575050565b600182600381111561136857611368611a02565b036113865760405163f645eedf60e01b815260040160405180910390fd5b600282600381111561139a5761139a611a02565b036113bb5760405163fce698f760e01b8152600481018290526024016104b6565b60038260038111156113cf576113cf611a02565b03610448576040516335e2f38360e21b8152600481018290526024016104b6565b6113fb8383836115fb565b61079a576001600160a01b03831661142957604051637e27328960e01b8152600481018290526024016104b6565b60405163177e802f60e01b81526001600160a01b0383166004820152602481018290526044016104b6565b60008072184f03e93ff9f4daa797ed6e38ed64bf6a1f0160401b83106114935772184f03e93ff9f4daa797ed6e38ed64bf6a1f0160401b830492506040015b6d04ee2d6d415b85acef810000000083106114bf576d04ee2d6d415b85acef8100000000830492506020015b662386f26fc1000083106114dd57662386f26fc10000830492506010015b6305f5e10083106114f5576305f5e100830492506008015b612710831061150957612710830492506004015b6064831061151b576064830492506002015b600a831061037c5760010192915050565b600080807f7fffffffffffffffffffffffffffffff5d576e7357a4501ddfe92f46681b20a084111561156757506000915060039050826115f1565b604080516000808252602082018084528a905260ff891692820192909252606081018790526080810186905260019060a0016020604051602081039080840390855afa1580156115bb573d6000803e3d6000fd5b5050604051601f1901519150506001600160a01b0381166115e7575060009250600191508290506115f1565b9250600091508190505b9450945094915050565b60006001600160a01b038316158015906116595750826001600160a01b0316846001600160a01b0316148061163557506116358484610c9d565b8061165957506000828152600460205260409020546001600160a01b038481169116145b949350505050565b6001600160e01b031981168114610d0657600080fd5b60006020828403121561168957600080fd5b8135610ad681611661565b60005b838110156116af578181015183820152602001611697565b50506000910152565b600081518084526116d0816020860160208601611694565b601f01601f19169290920160200192915050565b602081526000610ad660208301846116b8565b60006020828403121561170957600080fd5b5035919050565b80356001600160a01b038116811461172757600080fd5b919050565b6000806040838503121561173f57600080fd5b61174883611710565b946020939093013593505050565b634e487b7160e01b600052604160045260246000fd5b600082601f83011261177d57600080fd5b813567ffffffffffffffff8082111561179857611798611756565b604051601f8301601f19908116603f011681019082821181831017156117c0576117c0611756565b816040528381528660208588010111156117d957600080fd5b836020870160208301376000602085830101528094505050505092915050565b600080600080600060a0868803121561181157600080fd5b61181a86611710565b9450602086013567ffffffffffffffff8082111561183757600080fd5b61184389838a0161176c565b9550604088013591506004821061185957600080fd5b909350606087013592506080870135908082111561187657600080fd5b506118838882890161176c565b9150509295509295909350565b6000806000606084860312156118a557600080fd5b6118ae84611710565b92506118bc60208501611710565b9150604084013590509250925092565b600080604083850312156118df57600080fd5b823591506020830135600381106118f557600080fd5b809150509250929050565b60006020828403121561191257600080fd5b610ad682611710565b6000806040838503121561192e57600080fd5b61193783611710565b9150602083013580151581146118f557600080fd5b6000806000806080858703121561196257600080fd5b61196b85611710565b935061197960208601611710565b925060408501359150606085013567ffffffffffffffff81111561199c57600080fd5b6119a88782880161176c565b91505092959194509250565b600080604083850312156119c757600080fd5b6119d083611710565b9150602083013567ffffffffffffffff8111156119ec57600080fd5b6119f88582860161176c565b9150509250929050565b634e487b7160e01b600052602160045260246000fd5b60038110611a2857611a28611a02565b9052565b831515815260608101611a426020830185611a18565b826040830152949350505050565b60a081526000611a6360a08301886116b8565b9050856020830152846040830152611a7e6060830185611a18565b60048310611a8e57611a8e611a02565b8260808301529695505050505050565b60008060408385031215611ab157600080fd5b611aba83611710565b9150611ac860208401611710565b90509250929050565b600181811c90821680611ae557607f821691505b602082108103611b0557634e487b7160e01b600052602260045260246000fd5b50919050565b6bffffffffffffffffffffffff198560601b16815260008451611b35816014850160208901611694565b820160048510611b4757611b47611a02565b60f89490941b60148501525050601582015260350192915050565b8082018082111561037c57634e487b7160e01b600052601160045260246000fd5b601f82111561079a57600081815260208120601f850160051c81016020861015611baa5750805b601f850160051c820191505b8181101561114b57828155600101611bb6565b815167ffffffffffffffff811115611be357611be3611756565b611bf781611bf18454611ad1565b84611b83565b602080601f831160018114611c2c5760008415611c145750858301515b600019600386901b1c1916600185901b17855561114b565b600085815260208120601f198616915b82811015611c5b57888601518255948401946001909101908401611c3c565b5085821015611c795787850151600019600388901b60f8161c191681555b5050505050600190811b01905550565b6020808252601a908201527f436572746966696361746520646f6573206e6f74206578697374000000000000604082015260600190565b60008351611cd2818460208801611694565b835190830190611ce6818360208801611694565b01949350505050565b6bffffffffffffffffffffffff198360601b16815260008251611d19816014850160208701611694565b919091016014019392505050565b6001600160a01b0385811682528416602082015260408101839052608060608201819052600090611d5a908301846116b8565b9695505050505050565b600060208284031215611d7657600080fd5b8151610ad68161166156fea2646970667358221220541c484cbc1578d293c83d62aa4b86493483157d0972753d63a00062d4b73d5264736f6c63430008140033","linkReferences":{}},"methodIdentifiers":{"approve(address,uint256)":"095ea7b3","balanceOf(address)":"70a08231","checkAndUpdateExpiry(uint256)":"8a765f5c","checkCertificateStatus(address,string)":"c76f473b","generateTokenId(address,string)":"ff51993d","getApproved(uint256)":"081812fc","getCertificateInfo(uint256)":"e620f9e3","isApprovedForAll(address,address)":"e985e9c5","mint(address,string,uint8,uint256,bytes)":"0fb398c8","name()":"06fdde03","owner()":"8da5cb5b","ownerOf(uint256)":"6352211e","renounceOwnership()":"715018a6","safeTransferFrom(address,address,uint256)":"42842e0e","safeTransferFrom(address,address,uint256,bytes)":"b88d4fde","setApprovalForAll(address,bool)":"a22cb465","supportsInterface(bytes4)":"01ffc9a7","symbol()":"95d89b41","tokenURI(uint256)":"c87b56dd","transferFrom(address,address,uint256)":"23b872dd","transferOwnership(address)":"f2fde38b","updateStatus(uint256,uint8)":"3a1b3d31"},"id":40}