{"abi":[{"type":"constructor","inputs":[],"stateMutability":"nonpayable"},{"type":"function","name":"approve","inputs":[{"name":"to","type":"address","internalType":"address"},{"name":"tokenId","type":"uint256","internalType":"uint256"}],"outputs":[],"stateMutability":"nonpayable"},{"type":"function","name":"balanceOf","inputs":[{"name":"owner","type":"address","internalType":"address"}],"outputs":[{"name":"","type":"uint256","internalType":"uint256"}],"stateMutability":"view"},{"type":"function","name":"checkAndUpdateExpiry","inputs":[{"name":"tokenId","type":"uint256","internalType":"uint256"}],"outputs":[],"stateMutability":"nonpayable"},{"type":"function","name":"checkCertificateStatus","inputs":[{"name":"recipient","type":"address","internalType":"address"},{"name":"certificateId","type":"string","internalType":"string"}],"outputs":[{"name":"exists","type":"bool","internalType":"bool"},{"name":"status","type":"uint8","internalType":"enum Status"},{"name":"expiryTimestamp","type":"uint256","internalType":"uint256"}],"stateMutability":"view"},{"type":"function","name":"generateTokenId","inputs":[{"name":"recipient","type":"address","internalType":"address"},{"name":"certificateId","type":"string","internalType":"string"}],"outputs":[{"name":"","type":"uint256","internalType":"uint256"}],"stateMutability":"pure"},{"type":"function","name":"getApproved","inputs":[{"name":"tokenId","type":"uint256","internalType":"uint256"}],"outputs":[{"name":"","type":"address","internalType":"address"}],"stateMutability":"view"},{"type":"function","name":"getCertificateInfo","inputs":[{"name":"tokenId","type":"uint256","internalType":"uint256"}],"outputs":[{"name":"certificateId","type":"string","internalType":"string"},{"name":"issueTimestamp","type":"uint256","internalType":"uint256"},{"name":"expiryTimestamp","type":"uint256","internalType":"uint256"},{"name":"status","type":"uint8","internalType":"enum Status"},{"name":"level","type":"uint8","internalType":"enum ICertificateMetadata.Level"}],"stateMutability":"view"},{"type":"function","name":"isApprovedForAll","inputs":[{"name":"owner","type":"address","internalType":"address"},{"name":"operator","type":"address","internalType":"address"}],"outputs":[{"name":"","type":"bool","internalType":"bool"}],"stateMutability":"view"},{"type":"function","name":"mint","inputs":[{"name":"recipient","type":"address","internalType":"address"},{"name":"certificateId","type":"string","internalType":"string"},{"name":"level","type":"uint8","internalType":"enum ICertificateMetadata.Level"},{"name":"validityPeriod","type":"uint256","internalType":"uint256"},{"name":"price","type":"uint256","internalType":"uint256"},{"name":"signature","type":"bytes","internalType":"bytes"}],"outputs":[],"stateMutability":"payable"},{"type":"function","name":"name","inputs":[],"outputs":[{"name":"","type":"string","internalType":"string"}],"stateMutability":"view"},{"type":"function","name":"owner","inputs":[],"outputs":[{"name":"","type":"address","internalType":"address"}],"stateMutability":"view"},{"type":"function","name":"ownerOf","inputs":[{"name":"tokenId","type":"uint256","internalType":"uint256"}],"outputs":[{"name":"","type":"address","internalType":"address"}],"stateMutability":"view"},{"type":"function","name":"renounceOwnership","inputs":[],"outputs":[],"stateMutability":"nonpayable"},{"type":"function","name":"safeTransferFrom","inputs":[{"name":"from","type":"address","internalType":"address"},{"name":"to","type":"address","internalType":"address"},{"name":"tokenId","type":"uint256","internalType":"uint256"}],"outputs":[],"stateMutability":"nonpayable"},{"type":"function","name":"safeTransferFrom","inputs":[{"name":"from","type":"address","internalType":"address"},{"name":"to","type":"address","internalType":"address"},{"name":"tokenId","type":"uint256","internalType":"uint256"},{"name":"data","type":"bytes","internalType":"bytes"}],"outputs":[],"stateMutability":"nonpayable"},{"type":"function","name":"setApprovalForAll","inputs":[{"name":"operator","type":"address","internalType":"address"},{"name":"approved","type":"bool","internalType":"bool"}],"outputs":[],"stateMutability":"nonpayable"},{"type":"function","name":"supportsInterface","inputs":[{"name":"interfaceId","type":"bytes4","internalType":"bytes4"}],"outputs":[{"name":"","type":"bool","internalType":"bool"}],"stateMutability":"view"},{"type":"function","name":"symbol","inputs":[],"outputs":[{"name":"","type":"string","internalType":"string"}],"stateMutability":"view"},{"type":"function","name":"tokenURI","inputs":[{"name":"tokenId","type":"uint256","internalType":"uint256"}],"outputs":[{"name":"","type":"string","internalType":"string"}],"stateMutability":"view"},{"type":"function","name":"transferFrom","inputs":[{"name":"from","type":"address","internalType":"address"},{"name":"to","type":"address","internalType":"address"},{"name":"tokenId","type":"uint256","internalType":"uint256"}],"outputs":[],"stateMutability":"nonpayable"},{"type":"function","name":"transferOwnership","inputs":[{"name":"newOwner","type":"address","internalType":"address"}],"outputs":[],"stateMutability":"nonpayable"},{"type":"function","name":"updateStatus","inputs":[{"name":"tokenId","type":"uint256","internalType":"uint256"},{"name":"newStatus","type":"uint8","internalType":"enum Status"}],"outputs":[],"stateMutability":"nonpayable"},{"type":"event","name":"Approval","inputs":[{"name":"owner","type":"address","indexed":true,"internalType":"address"},{"name":"approved","type":"address","indexed":true,"internalType":"address"},{"name":"tokenId","type":"uint256","indexed":true,"internalType":"uint256"}],"anonymous":false},{"type":"event","name":"ApprovalForAll","inputs":[{"name":"owner","type":"address","indexed":true,"internalType":"address"},{"name":"operator","type":"address","indexed":true,"internalType":"address"},{"name":"approved","type":"bool","indexed":false,"internalType":"bool"}],"anonymous":false},{"type":"event","name":"OwnershipTransferred","inputs":[{"name":"previousOwner","type":"address","indexed":true,"internalType":"address"},{"name":"newOwner","type":"address","indexed":true,"internalType":"address"}],"anonymous":false},{"type":"event","name":"Transfer","inputs":[{"name":"from","type":"address","indexed":true,"internalType":"address"},{"name":"to","type":"address","indexed":true,"internalType":"address"},{"name":"tokenId","type":"uint256","indexed":true,"internalType":"uint256"}],"anonymous":false},{"type":"error","name":"ECDSAInvalidSignature","inputs":[]},{"type":"error","name":"ECDSAInvalidSignatureLength","inputs":[{"name":"length","type":"uint256","internalType":"uint256"}]},{"type":"error","name":"ECDSAInvalidSignatureS","inputs":[{"name":"s","type":"bytes32","internalType":"bytes32"}]},{"type":"error","name":"ERC721IncorrectOwner","inputs":[{"name":"sender","type":"address","internalType":"address"},{"name":"tokenId","type":"uint256","internalType":"uint256"},{"name":"owner","type":"address","internalType":"address"}]},{"type":"error","name":"ERC721InsufficientApproval","inputs":[{"name":"operator","type":"address","internalType":"address"},{"name":"tokenId","type":"uint256","internalType":"uint256"}]},{"type":"error","name":"ERC721InvalidApprover","inputs":[{"name":"approver","type":"address","internalType":"address"}]},{"type":"error","name":"ERC721InvalidOperator","inputs":[{"name":"operator","type":"address","internalType":"address"}]},{"type":"error","name":"ERC721InvalidOwner","inputs":[{"name":"owner","type":"address","internalType":"address"}]},{"type":"error","name":"ERC721InvalidReceiver","inputs":[{"name":"receiver","type":"address","internalType":"address"}]},{"type":"error","name":"ERC721InvalidSender","inputs":[{"name":"sender","type":"address","internalType":"address"}]},{"type":"error","name":"ERC721NonexistentToken","inputs":[{"name":"tokenId","type":"uint256","internalType":"uint256"}]},{"type":"error","name":"OwnableInvalidOwner","inputs":[{"name":"owner","type":"address","internalType":"address"}]},{"type":"error","name":"OwnableUnauthorizedAccount","inputs":[{"name":"account","type":"address","internalType":"address"}]}],"bytecode":{"object":"0x60806040523480156200001157600080fd5b50336040518060400160405280600b81526020016a436572746966696361746560a81b8152506040518060400160405280600481526020016310d1549560e21b8152508160009081620000659190620001af565b506001620000748282620001af565b5050506001600160a01b038116620000a657604051631e4fbdf760e01b81526000600482015260240160405180910390fd5b620000b181620000b8565b506200027b565b600680546001600160a01b038381166001600160a01b0319831681179093556040519116919082907f8be0079c531659141344cd1fd0a4f28419497f9722a3daafe3b4186f6b6457e090600090a35050565b634e487b7160e01b600052604160045260246000fd5b600181811c908216806200013557607f821691505b6020821081036200015657634e487b7160e01b600052602260045260246000fd5b50919050565b601f821115620001aa57600081815260208120601f850160051c81016020861015620001855750805b601f850160051c820191505b81811015620001a65782815560010162000191565b5050505b505050565b81516001600160401b03811115620001cb57620001cb6200010a565b620001e381620001dc845462000120565b846200015c565b602080601f8311600181146200021b5760008415620002025750858301515b600019600386901b1c1916600185901b178555620001a6565b600085815260208120601f198616915b828110156200024c578886015182559484019460019091019084016200022b565b50858210156200026b5787850151600019600388901b60f8161c191681555b5050505050600190811b01905550565b611f0f806200028b6000396000f3fe6080604052600436106101355760003560e01c80638a765f5c116100ab578063c76f473b1161006f578063c76f473b14610354578063c87b56dd14610383578063e620f9e3146103a3578063e985e9c5146103d4578063f2fde38b146103f4578063ff51993d1461041457600080fd5b80638a765f5c146102c15780638da5cb5b146102e157806395d89b41146102ff578063a22cb46514610314578063b88d4fde1461033457600080fd5b8063340844f4116100fd578063340844f41461020b5780633a1b3d311461021e57806342842e0e1461023e5780636352211e1461025e57806370a082311461027e578063715018a6146102ac57600080fd5b806301ffc9a71461013a57806306fdde031461016f578063081812fc14610191578063095ea7b3146101c957806323b872dd146101eb575b600080fd5b34801561014657600080fd5b5061015a6101553660046117bf565b610434565b60405190151581526020015b60405180910390f35b34801561017b57600080fd5b50610184610486565b604051610166919061182c565b34801561019d57600080fd5b506101b16101ac36600461183f565b610518565b6040516001600160a01b039091168152602001610166565b3480156101d557600080fd5b506101e96101e4366004611874565b610541565b005b3480156101f757600080fd5b506101e961020636600461189e565b610550565b6101e961021936600461197d565b6105e0565b34801561022a57600080fd5b506101e9610239366004611a1c565b61085a565b34801561024a57600080fd5b506101e961025936600461189e565b6108c7565b34801561026a57600080fd5b506101b161027936600461183f565b6108e7565b34801561028a57600080fd5b5061029e610299366004611a50565b6108f2565b604051908152602001610166565b3480156102b857600080fd5b506101e961093a565b3480156102cd57600080fd5b506101e96102dc36600461183f565b61094e565b3480156102ed57600080fd5b506006546001600160a01b03166101b1565b34801561030b57600080fd5b506101846109ce565b34801561032057600080fd5b506101e961032f366004611a6b565b6109dd565b34801561034057600080fd5b506101e961034f366004611a9c565b6109e8565b34801561036057600080fd5b5061037461036f366004611b04565b610a00565b60405161016693929190611b7c565b34801561038f57600080fd5b5061018461039e36600461183f565b610bb0565b3480156103af57600080fd5b506103c36103be36600461183f565b610c25565b604051610166959493929190611ba0565b3480156103e057600080fd5b5061015a6103ef366004611bee565b610de5565b34801561040057600080fd5b506101e961040f366004611a50565b610e13565b34801561042057600080fd5b5061029e61042f366004611b04565b610e51565b60006001600160e01b031982166380ac58cd60e01b148061046557506001600160e01b03198216635b5e139f60e01b145b8061048057506301ffc9a760e01b6001600160e01b03198316145b92915050565b60606000805461049590611c21565b80601f01602080910402602001604051908101604052809291908181526020018280546104c190611c21565b801561050e5780601f106104e35761010080835404028352916020019161050e565b820191906000526020600020905b8154815290600101906020018083116104f157829003601f168201915b5050505050905090565b600061052382610e85565b506000828152600460205260409020546001600160a01b0316610480565b61054c828233610ebe565b5050565b6001600160a01b03821661057f57604051633250574960e11b8152600060048201526024015b60405180910390fd5b600061058c838333610ecb565b9050836001600160a01b0316816001600160a01b0316146105da576040516364283d7b60e01b81526001600160a01b0380861660048301526024820184905282166044820152606401610576565b50505050565b813410156106205760405162461bcd60e51b815260206004820152600d60248201526c496e76616c696420707269636560981b6044820152606401610576565b600061062c8787610e51565b6000818152600760205260409020600101549091501561068e5760405162461bcd60e51b815260206004820152601a60248201527f436572746966696361746520616c7265616479206578697374730000000000006044820152606401610576565b600087878787876040516020016106a9959493929190611c5b565b60405160208183030381529060405280519060200120905060006106fa827f19457468657265756d205369676e6564204d6573736167653a0a3332000000006000908152601c91909152603c902090565b905061070e6006546001600160a01b031690565b6001600160a01b03166107218286610fc4565b6001600160a01b03161461076b5760405162461bcd60e51b8152602060048201526011602482015270496e76616c6964207369676e617475726560781b6044820152606401610576565b60006107778742611cba565b6040805160a0810182528b815242602082015290810182905290915060608101600081526020018960038111156107b0576107b0611b52565b90526000858152600760205260409020815181906107ce9082611d21565b50602082015181600101556040820151816002015560608201518160030160006101000a81548160ff0219169083600281111561080d5761080d611b52565b021790555060808201518160030160016101000a81548160ff0219169083600381111561083c5761083c611b52565b021790555090505061084e8a85610fee565b50505050505050505050565b610862611053565b6000828152600760205260409020600101546108905760405162461bcd60e51b815260040161057690611de1565b6000828152600760205260409020600301805482919060ff191660018360028111156108be576108be611b52565b02179055505050565b6108e2838383604051806020016040528060008152506109e8565b505050565b600061048082610e85565b60006001600160a01b03821661091e576040516322718ad960e21b815260006004820152602401610576565b506001600160a01b031660009081526003602052604090205490565b610942611053565b61094c6000611080565b565b60008181526007602052604090206001015461097c5760405162461bcd60e51b815260040161057690611de1565b600081815260076020526040812090600382015460ff1660028111156109a4576109a4611b52565b1480156109b45750806002015442115b1561054c576003810180546001919060ff191682806108be565b60606001805461049590611c21565b61054c3383836110d2565b6109f3848484610550565b6105da3385858585611171565b600080600080610a108686610e51565b600081815260076020526040902060010154909150610a3b5760006001600093509350935050610ba9565b600081815260076020526040808220815160a08101909252805482908290610a6290611c21565b80601f0160208091040260200160405190810160405280929190818152602001828054610a8e90611c21565b8015610adb5780601f10610ab057610100808354040283529160200191610adb565b820191906000526020600020905b815481529060010190602001808311610abe57829003601f168201915b5050509183525050600182015460208201526002808301546040830152600383015460609092019160ff1690811115610b1657610b16611b52565b6002811115610b2757610b27611b52565b81526020016003820160019054906101000a900460ff166003811115610b4f57610b4f611b52565b6003811115610b6057610b60611b52565b90525060608101519091506000816002811115610b7f57610b7f611b52565b148015610b8f5750816040015142115b15610b98575060015b604090910151600195509093509150505b9250925092565b6060610bbb82610e85565b506000610bd360408051602081019091526000815290565b90506000815111610bf35760405180602001604052806000815250610c1e565b80610bfd8461129c565b604051602001610c0e929190611e18565b6040516020818303038152906040525b9392505050565b6060600080600080610c4886600090815260076020526040902060010154151590565b610c645760405162461bcd60e51b815260040161057690611de1565b600086815260076020526040808220815160a08101909252805482908290610c8b90611c21565b80601f0160208091040260200160405190810160405280929190818152602001828054610cb790611c21565b8015610d045780601f10610cd957610100808354040283529160200191610d04565b820191906000526020600020905b815481529060010190602001808311610ce757829003601f168201915b5050509183525050600182015460208201526002808301546040830152600383015460609092019160ff1690811115610d3f57610d3f611b52565b6002811115610d5057610d50611b52565b81526020016003820160019054906101000a900460ff166003811115610d7857610d78611b52565b6003811115610d8957610d89611b52565b90525060608101519091506000816002811115610da857610da8611b52565b148015610db85750816040015142115b15610dc1575060015b815160208301516040840151608090940151919a9099509297509095509350915050565b6001600160a01b03918216600090815260056020908152604080832093909416825291909152205460ff1690565b610e1b611053565b6001600160a01b038116610e4557604051631e4fbdf760e01b815260006004820152602401610576565b610e4e81611080565b50565b60008282604051602001610e66929190611e47565b60408051601f1981840301815291905280516020909101209392505050565b6000818152600260205260408120546001600160a01b03168061048057604051637e27328960e01b815260048101849052602401610576565b6108e2838383600161132f565b6000828152600260205260408120546001600160a01b0390811690831615610ef857610ef8818486611435565b6001600160a01b03811615610f3657610f1560008560008061132f565b6001600160a01b038116600090815260036020526040902080546000190190555b6001600160a01b03851615610f65576001600160a01b0385166000908152600360205260409020805460010190555b60008481526002602052604080822080546001600160a01b0319166001600160a01b0389811691821790925591518793918516917fddf252ad1be2c89b69c2b068fc378daa952ba7f163c4a11628f55a4df523b3ef91a4949350505050565b600080600080610fd48686611499565b925092509250610fe482826114e3565b5090949350505050565b6001600160a01b03821661101857604051633250574960e11b815260006004820152602401610576565b600061102683836000610ecb565b90506001600160a01b038116156108e2576040516339e3563760e11b815260006004820152602401610576565b6006546001600160a01b0316331461094c5760405163118cdaa760e01b8152336004820152602401610576565b600680546001600160a01b038381166001600160a01b0319831681179093556040519116919082907f8be0079c531659141344cd1fd0a4f28419497f9722a3daafe3b4186f6b6457e090600090a35050565b6001600160a01b03821661110457604051630b61174360e31b81526001600160a01b0383166004820152602401610576565b6001600160a01b03838116600081815260056020908152604080832094871680845294825291829020805460ff191686151590811790915591519182527f17307eab39ab6107e8899845ad3d59bd9653f200f220920489ca2b5937696c31910160405180910390a3505050565b6001600160a01b0383163b1561129557604051630a85bd0160e11b81526001600160a01b0384169063150b7a02906111b3908890889087908790600401611e7f565b6020604051808303816000875af19250505080156111ee575060408051601f3d908101601f191682019092526111eb91810190611ebc565b60015b611257573d80801561121c576040519150601f19603f3d011682016040523d82523d6000602084013e611221565b606091505b50805160000361124f57604051633250574960e11b81526001600160a01b0385166004820152602401610576565b805181602001fd5b6001600160e01b03198116630a85bd0160e11b1461129357604051633250574960e11b81526001600160a01b0385166004820152602401610576565b505b5050505050565b606060006112a98361159c565b600101905060008167ffffffffffffffff8111156112c9576112c96118da565b6040519080825280601f01601f1916602001820160405280156112f3576020820181803683370190505b5090508181016020015b600019016f181899199a1a9b1b9c1cb0b131b232b360811b600a86061a8153600a85049450846112fd57509392505050565b808061134357506001600160a01b03821615155b1561140557600061135384610e85565b90506001600160a01b0383161580159061137f5750826001600160a01b0316816001600160a01b031614155b801561139257506113908184610de5565b155b156113bb5760405163a9fbf51f60e01b81526001600160a01b0384166004820152602401610576565b81156114035783856001600160a01b0316826001600160a01b03167f8c5be1e5ebec7d5bd14f71427d1e84f3dd0314c0f7b2291e5b200ac8c7c3b92560405160405180910390a45b505b5050600090815260046020526040902080546001600160a01b0319166001600160a01b0392909216919091179055565b611440838383611674565b6108e2576001600160a01b03831661146e57604051637e27328960e01b815260048101829052602401610576565b60405163177e802f60e01b81526001600160a01b038316600482015260248101829052604401610576565b600080600083516041036114d35760208401516040850151606086015160001a6114c5888285856116da565b955095509550505050610ba9565b5050815160009150600290610ba9565b60008260038111156114f7576114f7611b52565b03611500575050565b600182600381111561151457611514611b52565b036115325760405163f645eedf60e01b815260040160405180910390fd5b600282600381111561154657611546611b52565b036115675760405163fce698f760e01b815260048101829052602401610576565b600382600381111561157b5761157b611b52565b0361054c576040516335e2f38360e21b815260048101829052602401610576565b60008072184f03e93ff9f4daa797ed6e38ed64bf6a1f0160401b83106115db5772184f03e93ff9f4daa797ed6e38ed64bf6a1f0160401b830492506040015b6d04ee2d6d415b85acef81000000008310611607576d04ee2d6d415b85acef8100000000830492506020015b662386f26fc10000831061162557662386f26fc10000830492506010015b6305f5e100831061163d576305f5e100830492506008015b612710831061165157612710830492506004015b60648310611663576064830492506002015b600a83106104805760010192915050565b60006001600160a01b038316158015906116d25750826001600160a01b0316846001600160a01b031614806116ae57506116ae8484610de5565b806116d257506000828152600460205260409020546001600160a01b038481169116145b949350505050565b600080807f7fffffffffffffffffffffffffffffff5d576e7357a4501ddfe92f46681b20a0841115611715575060009150600390508261179f565b604080516000808252602082018084528a905260ff891692820192909252606081018790526080810186905260019060a0016020604051602081039080840390855afa158015611769573d6000803e3d6000fd5b5050604051601f1901519150506001600160a01b0381166117955750600092506001915082905061179f565b9250600091508190505b9450945094915050565b6001600160e01b031981168114610e4e57600080fd5b6000602082840312156117d157600080fd5b8135610c1e816117a9565b60005b838110156117f75781810151838201526020016117df565b50506000910152565b600081518084526118188160208601602086016117dc565b601f01601f19169290920160200192915050565b602081526000610c1e6020830184611800565b60006020828403121561185157600080fd5b5035919050565b80356001600160a01b038116811461186f57600080fd5b919050565b6000806040838503121561188757600080fd5b61189083611858565b946020939093013593505050565b6000806000606084860312156118b357600080fd5b6118bc84611858565b92506118ca60208501611858565b9150604084013590509250925092565b634e487b7160e01b600052604160045260246000fd5b600082601f83011261190157600080fd5b813567ffffffffffffffff8082111561191c5761191c6118da565b604051601f8301601f19908116603f01168101908282118183101715611944576119446118da565b8160405283815286602085880101111561195d57600080fd5b836020870160208301376000602085830101528094505050505092915050565b60008060008060008060c0878903121561199657600080fd5b61199f87611858565b9550602087013567ffffffffffffffff808211156119bc57600080fd5b6119c88a838b016118f0565b965060408901359150600482106119de57600080fd5b909450606088013593506080880135925060a08801359080821115611a0257600080fd5b50611a0f89828a016118f0565b9150509295509295509295565b60008060408385031215611a2f57600080fd5b82359150602083013560038110611a4557600080fd5b809150509250929050565b600060208284031215611a6257600080fd5b610c1e82611858565b60008060408385031215611a7e57600080fd5b611a8783611858565b915060208301358015158114611a4557600080fd5b60008060008060808587031215611ab257600080fd5b611abb85611858565b9350611ac960208601611858565b925060408501359150606085013567ffffffffffffffff811115611aec57600080fd5b611af8878288016118f0565b91505092959194509250565b60008060408385031215611b1757600080fd5b611b2083611858565b9150602083013567ffffffffffffffff811115611b3c57600080fd5b611b48858286016118f0565b9150509250929050565b634e487b7160e01b600052602160045260246000fd5b60038110611b7857611b78611b52565b9052565b831515815260608101611b926020830185611b68565b826040830152949350505050565b60a081526000611bb360a0830188611800565b9050856020830152846040830152611bce6060830185611b68565b60048310611bde57611bde611b52565b8260808301529695505050505050565b60008060408385031215611c0157600080fd5b611c0a83611858565b9150611c1860208401611858565b90509250929050565b600181811c90821680611c3557607f821691505b602082108103611c5557634e487b7160e01b600052602260045260246000fd5b50919050565b6bffffffffffffffffffffffff198660601b16815260008551611c85816014850160208a016117dc565b820160048610611c9757611c97611b52565b60f89590951b601486015250506015830191909152603582015260550192915050565b8082018082111561048057634e487b7160e01b600052601160045260246000fd5b601f8211156108e257600081815260208120601f850160051c81016020861015611d025750805b601f850160051c820191505b8181101561129357828155600101611d0e565b815167ffffffffffffffff811115611d3b57611d3b6118da565b611d4f81611d498454611c21565b84611cdb565b602080601f831160018114611d845760008415611d6c5750858301515b600019600386901b1c1916600185901b178555611293565b600085815260208120601f198616915b82811015611db357888601518255948401946001909101908401611d94565b5085821015611dd15787850151600019600388901b60f8161c191681555b5050505050600190811b01905550565b6020808252601a908201527f436572746966696361746520646f6573206e6f74206578697374000000000000604082015260600190565b60008351611e2a8184602088016117dc565b835190830190611e3e8183602088016117dc565b01949350505050565b6bffffffffffffffffffffffff198360601b16815260008251611e718160148501602087016117dc565b919091016014019392505050565b6001600160a01b0385811682528416602082015260408101839052608060608201819052600090611eb290830184611800565b9695505050505050565b600060208284031215611ece57600080fd5b8151610c1e816117a956fea2646970667358221220ad0be8afc63c6e0b87426400bc799500306b1f1dba539d8ddb317a6a7277e1b664736f6c63430008140033","linkReferences":{}},"methodIdentifiers":{"approve(address,uint256)":"095ea7b3","balanceOf(address)":"70a08231","checkAndUpdateExpiry(uint256)":"8a765f5c","checkCertificateStatus(address,string)":"c76f473b","generateTokenId(address,string)":"ff51993d","getApproved(uint256)":"081812fc","getCertificateInfo(uint256)":"e620f9e3","isApprovedForAll(address,address)":"e985e9c5","mint(address,string,uint8,uint256,uint256,bytes)":"340844f4","name()":"06fdde03","owner()":"8da5cb5b","ownerOf(uint256)":"6352211e","renounceOwnership()":"715018a6","safeTransferFrom(address,address,uint256)":"42842e0e","safeTransferFrom(address,address,uint256,bytes)":"b88d4fde","setApprovalForAll(address,bool)":"a22cb465","supportsInterface(bytes4)":"01ffc9a7","symbol()":"95d89b41","tokenURI(uint256)":"c87b56dd","transferFrom(address,address,uint256)":"23b872dd","transferOwnership(address)":"f2fde38b","updateStatus(uint256,uint8)":"3a1b3d31"},"id":40}