{"abi":[{"type":"constructor","inputs":[],"stateMutability":"nonpayable"},{"type":"function","name":"approve","inputs":[{"name":"to","type":"address","internalType":"address"},{"name":"tokenId","type":"uint256","internalType":"uint256"}],"outputs":[],"stateMutability":"nonpayable"},{"type":"function","name":"balanceOf","inputs":[{"name":"owner","type":"address","internalType":"address"}],"outputs":[{"name":"","type":"uint256","internalType":"uint256"}],"stateMutability":"view"},{"type":"function","name":"checkAndUpdateExpiry","inputs":[{"name":"tokenId","type":"uint256","internalType":"uint256"}],"outputs":[],"stateMutability":"nonpayable"},{"type":"function","name":"checkCertificateStatus","inputs":[{"name":"recipient","type":"address","internalType":"address"},{"name":"certificateId","type":"string","internalType":"string"}],"outputs":[{"name":"exists","type":"bool","internalType":"bool"},{"name":"status","type":"uint8","internalType":"enum Status"},{"name":"expiryTimestamp","type":"uint256","internalType":"uint256"}],"stateMutability":"view"},{"type":"function","name":"generateTokenId","inputs":[{"name":"recipient","type":"address","internalType":"address"},{"name":"certificateId","type":"string","internalType":"string"}],"outputs":[{"name":"","type":"uint256","internalType":"uint256"}],"stateMutability":"pure"},{"type":"function","name":"getApproved","inputs":[{"name":"tokenId","type":"uint256","internalType":"uint256"}],"outputs":[{"name":"","type":"address","internalType":"address"}],"stateMutability":"view"},{"type":"function","name":"getCertificateInfo","inputs":[{"name":"tokenId","type":"uint256","internalType":"uint256"}],"outputs":[{"name":"certificateId","type":"string","internalType":"string"},{"name":"issueTimestamp","type":"uint256","internalType":"uint256"},{"name":"expiryTimestamp","type":"uint256","internalType":"uint256"},{"name":"status","type":"uint8","internalType":"enum Status"},{"name":"level","type":"uint8","internalType":"enum ICertificateMetadata.Level"}],"stateMutability":"view"},{"type":"function","name":"isApprovedForAll","inputs":[{"name":"owner","type":"address","internalType":"address"},{"name":"operator","type":"address","internalType":"address"}],"outputs":[{"name":"","type":"bool","internalType":"bool"}],"stateMutability":"view"},{"type":"function","name":"mint","inputs":[{"name":"recipient","type":"address","internalType":"address"},{"name":"certificateId","type":"string","internalType":"string"},{"name":"level","type":"uint8","internalType":"enum ICertificateMetadata.Level"},{"name":"validityPeriod","type":"uint256","internalType":"uint256"},{"name":"price","type":"uint256","internalType":"uint256"},{"name":"signature","type":"bytes","internalType":"bytes"}],"outputs":[],"stateMutability":"payable"},{"type":"function","name":"name","inputs":[],"outputs":[{"name":"","type":"string","internalType":"string"}],"stateMutability":"view"},{"type":"function","name":"owner","inputs":[],"outputs":[{"name":"","type":"address","internalType":"address"}],"stateMutability":"view"},{"type":"function","name":"ownerOf","inputs":[{"name":"tokenId","type":"uint256","internalType":"uint256"}],"outputs":[{"name":"","type":"address","internalType":"address"}],"stateMutability":"view"},{"type":"function","name":"renounceOwnership","inputs":[],"outputs":[],"stateMutability":"nonpayable"},{"type":"function","name":"safeTransferFrom","inputs":[{"name":"from","type":"address","internalType":"address"},{"name":"to","type":"address","internalType":"address"},{"name":"tokenId","type":"uint256","internalType":"uint256"}],"outputs":[],"stateMutability":"nonpayable"},{"type":"function","name":"safeTransferFrom","inputs":[{"name":"from","type":"address","internalType":"address"},{"name":"to","type":"address","internalType":"address"},{"name":"tokenId","type":"uint256","internalType":"uint256"},{"name":"data","type":"bytes","internalType":"bytes"}],"outputs":[],"stateMutability":"nonpayable"},{"type":"function","name":"setApprovalForAll","inputs":[{"name":"operator","type":"address","internalType":"address"},{"name":"approved","type":"bool","internalType":"bool"}],"outputs":[],"stateMutability":"nonpayable"},{"type":"function","name":"supportsInterface","inputs":[{"name":"interfaceId","type":"bytes4","internalType":"bytes4"}],"outputs":[{"name":"","type":"bool","internalType":"bool"}],"stateMutability":"view"},{"type":"function","name":"symbol","inputs":[],"outputs":[{"name":"","type":"string","internalType":"string"}],"stateMutability":"view"},{"type":"function","name":"tokenByIndex","inputs":[{"name":"index","type":"uint256","internalType":"uint256"}],"outputs":[{"name":"","type":"uint256","internalType":"uint256"}],"stateMutability":"view"},{"type":"function","name":"tokenOfOwnerByIndex","inputs":[{"name":"owner","type":"address","internalType":"address"},{"name":"index","type":"uint256","internalType":"uint256"}],"outputs":[{"name":"","type":"uint256","internalType":"uint256"}],"stateMutability":"view"},{"type":"function","name":"tokenURI","inputs":[{"name":"tokenId","type":"uint256","internalType":"uint256"}],"outputs":[{"name":"","type":"string","internalType":"string"}],"stateMutability":"view"},{"type":"function","name":"totalSupply","inputs":[],"outputs":[{"name":"","type":"uint256","internalType":"uint256"}],"stateMutability":"view"},{"type":"function","name":"transferFrom","inputs":[{"name":"from","type":"address","internalType":"address"},{"name":"to","type":"address","internalType":"address"},{"name":"tokenId","type":"uint256","internalType":"uint256"}],"outputs":[],"stateMutability":"nonpayable"},{"type":"function","name":"transferOwnership","inputs":[{"name":"newOwner","type":"address","internalType":"address"}],"outputs":[],"stateMutability":"nonpayable"},{"type":"function","name":"updateStatus","inputs":[{"name":"tokenId","type":"uint256","internalType":"uint256"},{"name":"newStatus","type":"uint8","internalType":"enum Status"}],"outputs":[],"stateMutability":"nonpayable"},{"type":"event","name":"Approval","inputs":[{"name":"owner","type":"address","indexed":true,"internalType":"address"},{"name":"approved","type":"address","indexed":true,"internalType":"address"},{"name":"tokenId","type":"uint256","indexed":true,"internalType":"uint256"}],"anonymous":false},{"type":"event","name":"ApprovalForAll","inputs":[{"name":"owner","type":"address","indexed":true,"internalType":"address"},{"name":"operator","type":"address","indexed":true,"internalType":"address"},{"name":"approved","type":"bool","indexed":false,"internalType":"bool"}],"anonymous":false},{"type":"event","name":"OwnershipTransferred","inputs":[{"name":"previousOwner","type":"address","indexed":true,"internalType":"address"},{"name":"newOwner","type":"address","indexed":true,"internalType":"address"}],"anonymous":false},{"type":"event","name":"Transfer","inputs":[{"name":"from","type":"address","indexed":true,"internalType":"address"},{"name":"to","type":"address","indexed":true,"internalType":"address"},{"name":"tokenId","type":"uint256","indexed":true,"internalType":"uint256"}],"anonymous":false},{"type":"error","name":"ECDSAInvalidSignature","inputs":[]},{"type":"error","name":"ECDSAInvalidSignatureLength","inputs":[{"name":"length","type":"uint256","internalType":"uint256"}]},{"type":"error","name":"ECDSAInvalidSignatureS","inputs":[{"name":"s","type":"bytes32","internalType":"bytes32"}]},{"type":"error","name":"ERC721EnumerableForbiddenBatchMint","inputs":[]},{"type":"error","name":"ERC721IncorrectOwner","inputs":[{"name":"sender","type":"address","internalType":"address"},{"name":"tokenId","type":"uint256","internalType":"uint256"},{"name":"owner","type":"address","internalType":"address"}]},{"type":"error","name":"ERC721InsufficientApproval","inputs":[{"name":"operator","type":"address","internalType":"address"},{"name":"tokenId","type":"uint256","internalType":"uint256"}]},{"type":"error","name":"ERC721InvalidApprover","inputs":[{"name":"approver","type":"address","internalType":"address"}]},{"type":"error","name":"ERC721InvalidOperator","inputs":[{"name":"operator","type":"address","internalType":"address"}]},{"type":"error","name":"ERC721InvalidOwner","inputs":[{"name":"owner","type":"address","internalType":"address"}]},{"type":"error","name":"ERC721InvalidReceiver","inputs":[{"name":"receiver","type":"address","internalType":"address"}]},{"type":"error","name":"ERC721InvalidSender","inputs":[{"name":"sender","type":"address","internalType":"address"}]},{"type":"error","name":"ERC721NonexistentToken","inputs":[{"name":"tokenId","type":"uint256","internalType":"uint256"}]},{"type":"error","name":"ERC721OutOfBoundsIndex","inputs":[{"name":"owner","type":"address","internalType":"address"},{"name":"index","type":"uint256","internalType":"uint256"}]},{"type":"error","name":"OwnableInvalidOwner","inputs":[{"name":"owner","type":"address","internalType":"address"}]},{"type":"error","name":"OwnableUnauthorizedAccount","inputs":[{"name":"account","type":"address","internalType":"address"}]}],"bytecode":{"object":"0x60806040523480156200001157600080fd5b50336040518060400160405280600b81526020016a436572746966696361746560a81b8152506040518060400160405280600481526020016310d1549560e21b8152508160009081620000659190620001af565b506001620000748282620001af565b5050506001600160a01b038116620000a657604051631e4fbdf760e01b81526000600482015260240160405180910390fd5b620000b181620000b8565b506200027b565b600a80546001600160a01b038381166001600160a01b0319831681179093556040519116919082907f8be0079c531659141344cd1fd0a4f28419497f9722a3daafe3b4186f6b6457e090600090a35050565b634e487b7160e01b600052604160045260246000fd5b600181811c908216806200013557607f821691505b6020821081036200015657634e487b7160e01b600052602260045260246000fd5b50919050565b601f821115620001aa57600081815260208120601f850160051c81016020861015620001855750805b601f850160051c820191505b81811015620001a65782815560010162000191565b5050505b505050565b81516001600160401b03811115620001cb57620001cb6200010a565b620001e381620001dc845462000120565b846200015c565b602080601f8311600181146200021b5760008415620002025750858301515b600019600386901b1c1916600185901b178555620001a6565b600085815260208120601f198616915b828110156200024c578886015182559484019460019091019084016200022b565b50858210156200026b5787850151600019600388901b60f8161c191681555b5050505050600190811b01905550565b612311806200028b6000396000f3fe6080604052600436106101665760003560e01c806370a08231116100d1578063b88d4fde1161008a578063e620f9e311610064578063e620f9e314610425578063e985e9c514610456578063f2fde38b14610476578063ff51993d1461049657600080fd5b8063b88d4fde146103b6578063c76f473b146103d6578063c87b56dd1461040557600080fd5b806370a082311461030e578063715018a61461032e5780638a765f5c146103435780638da5cb5b1461036357806395d89b4114610381578063a22cb4651461039657600080fd5b80632f745c59116101235780632f745c591461025b578063340844f41461027b5780633a1b3d311461028e57806342842e0e146102ae5780634f6ccce7146102ce5780636352211e146102ee57600080fd5b806301ffc9a71461016b57806306fdde03146101a0578063081812fc146101c2578063095ea7b3146101fa57806318160ddd1461021c57806323b872dd1461023b575b600080fd5b34801561017757600080fd5b5061018b610186366004611b7a565b6104b6565b60405190151581526020015b60405180910390f35b3480156101ac57600080fd5b506101b56104e1565b6040516101979190611be7565b3480156101ce57600080fd5b506101e26101dd366004611bfa565b610573565b6040516001600160a01b039091168152602001610197565b34801561020657600080fd5b5061021a610215366004611c2f565b61059c565b005b34801561022857600080fd5b506008545b604051908152602001610197565b34801561024757600080fd5b5061021a610256366004611c59565b6105ab565b34801561026757600080fd5b5061022d610276366004611c2f565b61063b565b61021a610289366004611d38565b6106a0565b34801561029a57600080fd5b5061021a6102a9366004611dd7565b61091a565b3480156102ba57600080fd5b5061021a6102c9366004611c59565b610987565b3480156102da57600080fd5b5061022d6102e9366004611bfa565b6109a7565b3480156102fa57600080fd5b506101e2610309366004611bfa565b610a00565b34801561031a57600080fd5b5061022d610329366004611e0b565b610a0b565b34801561033a57600080fd5b5061021a610a53565b34801561034f57600080fd5b5061021a61035e366004611bfa565b610a67565b34801561036f57600080fd5b50600a546001600160a01b03166101e2565b34801561038d57600080fd5b506101b5610ae7565b3480156103a257600080fd5b5061021a6103b1366004611e26565b610af6565b3480156103c257600080fd5b5061021a6103d1366004611e57565b610b01565b3480156103e257600080fd5b506103f66103f1366004611ebf565b610b19565b60405161019793929190611f37565b34801561041157600080fd5b506101b5610420366004611bfa565b610cc9565b34801561043157600080fd5b50610445610440366004611bfa565b610d3e565b604051610197959493929190611f5b565b34801561046257600080fd5b5061018b610471366004611fa9565b610efe565b34801561048257600080fd5b5061021a610491366004611e0b565b610f2c565b3480156104a257600080fd5b5061022d6104b1366004611ebf565b610f6a565b60006001600160e01b0319821663780e9d6360e01b14806104db57506104db82610f9e565b92915050565b6060600080546104f090611fdc565b80601f016020809104026020016040519081016040528092919081815260200182805461051c90611fdc565b80156105695780601f1061053e57610100808354040283529160200191610569565b820191906000526020600020905b81548152906001019060200180831161054c57829003601f168201915b5050505050905090565b600061057e82610fee565b506000828152600460205260409020546001600160a01b03166104db565b6105a7828233611027565b5050565b6001600160a01b0382166105da57604051633250574960e11b8152600060048201526024015b60405180910390fd5b60006105e7838333611034565b9050836001600160a01b0316816001600160a01b031614610635576040516364283d7b60e01b81526001600160a01b03808616600483015260248201849052821660448201526064016105d1565b50505050565b600061064683610a0b565b82106106775760405163295f44f760e21b81526001600160a01b0384166004820152602481018390526044016105d1565b506001600160a01b03919091166000908152600660209081526040808320938352929052205490565b813410156106e05760405162461bcd60e51b815260206004820152600d60248201526c496e76616c696420707269636560981b60448201526064016105d1565b60006106ec8787610f6a565b6000818152600b60205260409020600101549091501561074e5760405162461bcd60e51b815260206004820152601a60248201527f436572746966696361746520616c72656164792065786973747300000000000060448201526064016105d1565b60008787878787604051602001610769959493929190612016565b60405160208183030381529060405280519060200120905060006107ba827f19457468657265756d205369676e6564204d6573736167653a0a3332000000006000908152601c91909152603c902090565b90506107ce600a546001600160a01b031690565b6001600160a01b03166107e18286611109565b6001600160a01b03161461082b5760405162461bcd60e51b8152602060048201526011602482015270496e76616c6964207369676e617475726560781b60448201526064016105d1565b6000610837874261208b565b6040805160a0810182528b8152426020820152908101829052909150606081016000815260200189600381111561087057610870611f0d565b90526000858152600b602052604090208151819061088e90826120e4565b50602082015181600101556040820151816002015560608201518160030160006101000a81548160ff021916908360028111156108cd576108cd611f0d565b021790555060808201518160030160016101000a81548160ff021916908360038111156108fc576108fc611f0d565b021790555090505061090e8a85611133565b50505050505050505050565b610922611198565b6000828152600b60205260409020600101546109505760405162461bcd60e51b81526004016105d1906121a4565b6000828152600b60205260409020600301805482919060ff1916600183600281111561097e5761097e611f0d565b02179055505050565b6109a283838360405180602001604052806000815250610b01565b505050565b60006109b260085490565b82106109db5760405163295f44f760e21b815260006004820152602481018390526044016105d1565b600882815481106109ee576109ee6121db565b90600052602060002001549050919050565b60006104db82610fee565b60006001600160a01b038216610a37576040516322718ad960e21b8152600060048201526024016105d1565b506001600160a01b031660009081526003602052604090205490565b610a5b611198565b610a6560006111c5565b565b6000818152600b6020526040902060010154610a955760405162461bcd60e51b81526004016105d1906121a4565b6000818152600b6020526040812090600382015460ff166002811115610abd57610abd611f0d565b148015610acd5750806002015442115b156105a7576003810180546001919060ff1916828061097e565b6060600180546104f090611fdc565b6105a7338383611217565b610b0c8484846105ab565b61063533858585856112b6565b600080600080610b298686610f6a565b6000818152600b6020526040902060010154909150610b545760006001600093509350935050610cc2565b6000818152600b6020526040808220815160a08101909252805482908290610b7b90611fdc565b80601f0160208091040260200160405190810160405280929190818152602001828054610ba790611fdc565b8015610bf45780601f10610bc957610100808354040283529160200191610bf4565b820191906000526020600020905b815481529060010190602001808311610bd757829003601f168201915b5050509183525050600182015460208201526002808301546040830152600383015460609092019160ff1690811115610c2f57610c2f611f0d565b6002811115610c4057610c40611f0d565b81526020016003820160019054906101000a900460ff166003811115610c6857610c68611f0d565b6003811115610c7957610c79611f0d565b90525060608101519091506000816002811115610c9857610c98611f0d565b148015610ca85750816040015142115b15610cb1575060015b604090910151600195509093509150505b9250925092565b6060610cd482610fee565b506000610cec60408051602081019091526000815290565b90506000815111610d0c5760405180602001604052806000815250610d37565b80610d16846113e1565b604051602001610d279291906121f1565b6040516020818303038152906040525b9392505050565b6060600080600080610d61866000908152600b6020526040902060010154151590565b610d7d5760405162461bcd60e51b81526004016105d1906121a4565b6000868152600b6020526040808220815160a08101909252805482908290610da490611fdc565b80601f0160208091040260200160405190810160405280929190818152602001828054610dd090611fdc565b8015610e1d5780601f10610df257610100808354040283529160200191610e1d565b820191906000526020600020905b815481529060010190602001808311610e0057829003601f168201915b5050509183525050600182015460208201526002808301546040830152600383015460609092019160ff1690811115610e5857610e58611f0d565b6002811115610e6957610e69611f0d565b81526020016003820160019054906101000a900460ff166003811115610e9157610e91611f0d565b6003811115610ea257610ea2611f0d565b90525060608101519091506000816002811115610ec157610ec1611f0d565b148015610ed15750816040015142115b15610eda575060015b815160208301516040840151608090940151919a9099509297509095509350915050565b6001600160a01b03918216600090815260056020908152604080832093909416825291909152205460ff1690565b610f34611198565b6001600160a01b038116610f5e57604051631e4fbdf760e01b8152600060048201526024016105d1565b610f67816111c5565b50565b60008282604051602001610f7f929190612220565b60408051601f1981840301815291905280516020909101209392505050565b60006001600160e01b031982166380ac58cd60e01b1480610fcf57506001600160e01b03198216635b5e139f60e01b145b806104db57506301ffc9a760e01b6001600160e01b03198316146104db565b6000818152600260205260408120546001600160a01b0316806104db57604051637e27328960e01b8152600481018490526024016105d1565b6109a28383836001611474565b60008061104285858561157a565b90506001600160a01b03811661109f5761109a84600880546000838152600960205260408120829055600182018355919091527ff3f7a9fe364faab93b216da50a3214154f22a0a2b415b23a84c8169e8b636ee30155565b6110c2565b846001600160a01b0316816001600160a01b0316146110c2576110c28185611673565b6001600160a01b0385166110de576110d9846116f4565b611101565b846001600160a01b0316816001600160a01b0316146111015761110185856117a3565b949350505050565b60008060008061111986866117f3565b925092509250611129828261183d565b5090949350505050565b6001600160a01b03821661115d57604051633250574960e11b8152600060048201526024016105d1565b600061116b83836000611034565b90506001600160a01b038116156109a2576040516339e3563760e11b8152600060048201526024016105d1565b600a546001600160a01b03163314610a655760405163118cdaa760e01b81523360048201526024016105d1565b600a80546001600160a01b038381166001600160a01b0319831681179093556040519116919082907f8be0079c531659141344cd1fd0a4f28419497f9722a3daafe3b4186f6b6457e090600090a35050565b6001600160a01b03821661124957604051630b61174360e31b81526001600160a01b03831660048201526024016105d1565b6001600160a01b03838116600081815260056020908152604080832094871680845294825291829020805460ff191686151590811790915591519182527f17307eab39ab6107e8899845ad3d59bd9653f200f220920489ca2b5937696c31910160405180910390a3505050565b6001600160a01b0383163b156113da57604051630a85bd0160e11b81526001600160a01b0384169063150b7a02906112f8908890889087908790600401612258565b6020604051808303816000875af1925050508015611333575060408051601f3d908101601f1916820190925261133091810190612295565b60015b61139c573d808015611361576040519150601f19603f3d011682016040523d82523d6000602084013e611366565b606091505b50805160000361139457604051633250574960e11b81526001600160a01b03851660048201526024016105d1565b805181602001fd5b6001600160e01b03198116630a85bd0160e11b146113d857604051633250574960e11b81526001600160a01b03851660048201526024016105d1565b505b5050505050565b606060006113ee836118f6565b600101905060008167ffffffffffffffff81111561140e5761140e611c95565b6040519080825280601f01601f191660200182016040528015611438576020820181803683370190505b5090508181016020015b600019016f181899199a1a9b1b9c1cb0b131b232b360811b600a86061a8153600a850494508461144257509392505050565b808061148857506001600160a01b03821615155b1561154a57600061149884610fee565b90506001600160a01b038316158015906114c45750826001600160a01b0316816001600160a01b031614155b80156114d757506114d58184610efe565b155b156115005760405163a9fbf51f60e01b81526001600160a01b03841660048201526024016105d1565b81156115485783856001600160a01b0316826001600160a01b03167f8c5be1e5ebec7d5bd14f71427d1e84f3dd0314c0f7b2291e5b200ac8c7c3b92560405160405180910390a45b505b5050600090815260046020526040902080546001600160a01b0319166001600160a01b0392909216919091179055565b6000828152600260205260408120546001600160a01b03908116908316156115a7576115a78184866119ce565b6001600160a01b038116156115e5576115c4600085600080611474565b6001600160a01b038116600090815260036020526040902080546000190190555b6001600160a01b03851615611614576001600160a01b0385166000908152600360205260409020805460010190555b60008481526002602052604080822080546001600160a01b0319166001600160a01b0389811691821790925591518793918516917fddf252ad1be2c89b69c2b068fc378daa952ba7f163c4a11628f55a4df523b3ef91a4949350505050565b600061167e83610a0b565b6000838152600760209081526040808320546001600160a01b03881684526006909252909120919250908183146116d557600083815260208281526040808320548584528184208190558352600790915290208290555b6000938452600760209081526040808620869055938552525081205550565b600854600090611706906001906122b2565b6000838152600960205260408120546008805493945090928490811061172e5761172e6121db565b90600052602060002001549050806008838154811061174f5761174f6121db565b6000918252602080832090910192909255828152600990915260408082208490558582528120556008805480611787576117876122c5565b6001900381819060005260206000200160009055905550505050565b600060016117b084610a0b565b6117ba91906122b2565b6001600160a01b039093166000908152600660209081526040808320868452825280832085905593825260079052919091209190915550565b6000806000835160410361182d5760208401516040850151606086015160001a61181f88828585611a32565b955095509550505050610cc2565b5050815160009150600290610cc2565b600082600381111561185157611851611f0d565b0361185a575050565b600182600381111561186e5761186e611f0d565b0361188c5760405163f645eedf60e01b815260040160405180910390fd5b60028260038111156118a0576118a0611f0d565b036118c15760405163fce698f760e01b8152600481018290526024016105d1565b60038260038111156118d5576118d5611f0d565b036105a7576040516335e2f38360e21b8152600481018290526024016105d1565b60008072184f03e93ff9f4daa797ed6e38ed64bf6a1f0160401b83106119355772184f03e93ff9f4daa797ed6e38ed64bf6a1f0160401b830492506040015b6d04ee2d6d415b85acef81000000008310611961576d04ee2d6d415b85acef8100000000830492506020015b662386f26fc10000831061197f57662386f26fc10000830492506010015b6305f5e1008310611997576305f5e100830492506008015b61271083106119ab57612710830492506004015b606483106119bd576064830492506002015b600a83106104db5760010192915050565b6119d9838383611b01565b6109a2576001600160a01b038316611a0757604051637e27328960e01b8152600481018290526024016105d1565b60405163177e802f60e01b81526001600160a01b0383166004820152602481018290526044016105d1565b600080807f7fffffffffffffffffffffffffffffff5d576e7357a4501ddfe92f46681b20a0841115611a6d5750600091506003905082611af7565b604080516000808252602082018084528a905260ff891692820192909252606081018790526080810186905260019060a0016020604051602081039080840390855afa158015611ac1573d6000803e3d6000fd5b5050604051601f1901519150506001600160a01b038116611aed57506000925060019150829050611af7565b9250600091508190505b9450945094915050565b60006001600160a01b038316158015906111015750826001600160a01b0316846001600160a01b03161480611b3b5750611b3b8484610efe565b806111015750506000908152600460205260409020546001600160a01b03908116911614919050565b6001600160e01b031981168114610f6757600080fd5b600060208284031215611b8c57600080fd5b8135610d3781611b64565b60005b83811015611bb2578181015183820152602001611b9a565b50506000910152565b60008151808452611bd3816020860160208601611b97565b601f01601f19169290920160200192915050565b602081526000610d376020830184611bbb565b600060208284031215611c0c57600080fd5b5035919050565b80356001600160a01b0381168114611c2a57600080fd5b919050565b60008060408385031215611c4257600080fd5b611c4b83611c13565b946020939093013593505050565b600080600060608486031215611c6e57600080fd5b611c7784611c13565b9250611c8560208501611c13565b9150604084013590509250925092565b634e487b7160e01b600052604160045260246000fd5b600082601f830112611cbc57600080fd5b813567ffffffffffffffff80821115611cd757611cd7611c95565b604051601f8301601f19908116603f01168101908282118183101715611cff57611cff611c95565b81604052838152866020858801011115611d1857600080fd5b836020870160208301376000602085830101528094505050505092915050565b60008060008060008060c08789031215611d5157600080fd5b611d5a87611c13565b9550602087013567ffffffffffffffff80821115611d7757600080fd5b611d838a838b01611cab565b96506040890135915060048210611d9957600080fd5b909450606088013593506080880135925060a08801359080821115611dbd57600080fd5b50611dca89828a01611cab565b9150509295509295509295565b60008060408385031215611dea57600080fd5b82359150602083013560038110611e0057600080fd5b809150509250929050565b600060208284031215611e1d57600080fd5b610d3782611c13565b60008060408385031215611e3957600080fd5b611e4283611c13565b915060208301358015158114611e0057600080fd5b60008060008060808587031215611e6d57600080fd5b611e7685611c13565b9350611e8460208601611c13565b925060408501359150606085013567ffffffffffffffff811115611ea757600080fd5b611eb387828801611cab565b91505092959194509250565b60008060408385031215611ed257600080fd5b611edb83611c13565b9150602083013567ffffffffffffffff811115611ef757600080fd5b611f0385828601611cab565b9150509250929050565b634e487b7160e01b600052602160045260246000fd5b60038110611f3357611f33611f0d565b9052565b831515815260608101611f4d6020830185611f23565b826040830152949350505050565b60a081526000611f6e60a0830188611bbb565b9050856020830152846040830152611f896060830185611f23565b60048310611f9957611f99611f0d565b8260808301529695505050505050565b60008060408385031215611fbc57600080fd5b611fc583611c13565b9150611fd360208401611c13565b90509250929050565b600181811c90821680611ff057607f821691505b60208210810361201057634e487b7160e01b600052602260045260246000fd5b50919050565b6bffffffffffffffffffffffff198660601b16815260008551612040816014850160208a01611b97565b82016004861061205257612052611f0d565b60f89590951b601486015250506015830191909152603582015260550192915050565b634e487b7160e01b600052601160045260246000fd5b808201808211156104db576104db612075565b601f8211156109a257600081815260208120601f850160051c810160208610156120c55750805b601f850160051c820191505b818110156113d8578281556001016120d1565b815167ffffffffffffffff8111156120fe576120fe611c95565b6121128161210c8454611fdc565b8461209e565b602080601f831160018114612147576000841561212f5750858301515b600019600386901b1c1916600185901b1785556113d8565b600085815260208120601f198616915b8281101561217657888601518255948401946001909101908401612157565b50858210156121945787850151600019600388901b60f8161c191681555b5050505050600190811b01905550565b6020808252601a908201527f436572746966696361746520646f6573206e6f74206578697374000000000000604082015260600190565b634e487b7160e01b600052603260045260246000fd5b60008351612203818460208801611b97565b835190830190612217818360208801611b97565b01949350505050565b6bffffffffffffffffffffffff198360601b1681526000825161224a816014850160208701611b97565b919091016014019392505050565b6001600160a01b038581168252841660208201526040810183905260806060820181905260009061228b90830184611bbb565b9695505050505050565b6000602082840312156122a757600080fd5b8151610d3781611b64565b818103818111156104db576104db612075565b634e487b7160e01b600052603160045260246000fdfea2646970667358221220ccc2b7604806205825e70c0528889a63cc41b0a579337bfe77b4fe94ca51ae5164736f6c63430008140033","linkReferences":{}},"methodIdentifiers":{"approve(address,uint256)":"095ea7b3","balanceOf(address)":"70a08231","checkAndUpdateExpiry(uint256)":"8a765f5c","checkCertificateStatus(address,string)":"c76f473b","generateTokenId(address,string)":"ff51993d","getApproved(uint256)":"081812fc","getCertificateInfo(uint256)":"e620f9e3","isApprovedForAll(address,address)":"e985e9c5","mint(address,string,uint8,uint256,uint256,bytes)":"340844f4","name()":"06fdde03","owner()":"8da5cb5b","ownerOf(uint256)":"6352211e","renounceOwnership()":"715018a6","safeTransferFrom(address,address,uint256)":"42842e0e","safeTransferFrom(address,address,uint256,bytes)":"b88d4fde","setApprovalForAll(address,bool)":"a22cb465","supportsInterface(bytes4)":"01ffc9a7","symbol()":"95d89b41","tokenByIndex(uint256)":"4f6ccce7","tokenOfOwnerByIndex(address,uint256)":"2f745c59","tokenURI(uint256)":"c87b56dd","totalSupply()":"18160ddd","transferFrom(address,address,uint256)":"23b872dd","transferOwnership(address)":"f2fde38b","updateStatus(uint256,uint8)":"3a1b3d31"},"id":44}