{"abi":[{"type":"constructor","inputs":[],"stateMutability":"nonpayable"},{"type":"function","name":"approve","inputs":[{"name":"to","type":"address","internalType":"address"},{"name":"tokenId","type":"uint256","internalType":"uint256"}],"outputs":[],"stateMutability":"nonpayable"},{"type":"function","name":"balanceOf","inputs":[{"name":"owner","type":"address","internalType":"address"}],"outputs":[{"name":"","type":"uint256","internalType":"uint256"}],"stateMutability":"view"},{"type":"function","name":"checkAndUpdateExpiry","inputs":[{"name":"tokenId","type":"uint256","internalType":"uint256"}],"outputs":[],"stateMutability":"nonpayable"},{"type":"function","name":"checkCertificateStatus","inputs":[{"name":"recipient","type":"address","internalType":"address"},{"name":"certificateId","type":"string","internalType":"string"}],"outputs":[{"name":"exists","type":"bool","internalType":"bool"},{"name":"status","type":"uint8","internalType":"enum Status"},{"name":"expiryTimestamp","type":"uint256","internalType":"uint256"}],"stateMutability":"view"},{"type":"function","name":"generateTokenId","inputs":[{"name":"recipient","type":"address","internalType":"address"},{"name":"certificateId","type":"string","internalType":"string"}],"outputs":[{"name":"","type":"uint256","internalType":"uint256"}],"stateMutability":"pure"},{"type":"function","name":"getApproved","inputs":[{"name":"tokenId","type":"uint256","internalType":"uint256"}],"outputs":[{"name":"","type":"address","internalType":"address"}],"stateMutability":"view"},{"type":"function","name":"getCertificateInfo","inputs":[{"name":"tokenId","type":"uint256","internalType":"uint256"}],"outputs":[{"name":"certificateId","type":"string","internalType":"string"},{"name":"issueTimestamp","type":"uint256","internalType":"uint256"},{"name":"expiryTimestamp","type":"uint256","internalType":"uint256"},{"name":"status","type":"uint8","internalType":"enum Status"},{"name":"level","type":"uint8","internalType":"enum ICertificateMetadata.Level"}],"stateMutability":"view"},{"type":"function","name":"isApprovedForAll","inputs":[{"name":"owner","type":"address","internalType":"address"},{"name":"operator","type":"address","internalType":"address"}],"outputs":[{"name":"","type":"bool","internalType":"bool"}],"stateMutability":"view"},{"type":"function","name":"mint","inputs":[{"name":"recipient","type":"address","internalType":"address"},{"name":"certificateId","type":"string","internalType":"string"},{"name":"level","type":"uint8","internalType":"enum ICertificateMetadata.Level"},{"name":"validityPeriod","type":"uint256","internalType":"uint256"},{"name":"price","type":"uint256","internalType":"uint256"},{"name":"signature","type":"bytes","internalType":"bytes"}],"outputs":[],"stateMutability":"payable"},{"type":"function","name":"name","inputs":[],"outputs":[{"name":"","type":"string","internalType":"string"}],"stateMutability":"view"},{"type":"function","name":"owner","inputs":[],"outputs":[{"name":"","type":"address","internalType":"address"}],"stateMutability":"view"},{"type":"function","name":"ownerOf","inputs":[{"name":"tokenId","type":"uint256","internalType":"uint256"}],"outputs":[{"name":"","type":"address","internalType":"address"}],"stateMutability":"view"},{"type":"function","name":"renounceOwnership","inputs":[],"outputs":[],"stateMutability":"nonpayable"},{"type":"function","name":"safeTransferFrom","inputs":[{"name":"from","type":"address","internalType":"address"},{"name":"to","type":"address","internalType":"address"},{"name":"tokenId","type":"uint256","internalType":"uint256"}],"outputs":[],"stateMutability":"nonpayable"},{"type":"function","name":"safeTransferFrom","inputs":[{"name":"from","type":"address","internalType":"address"},{"name":"to","type":"address","internalType":"address"},{"name":"tokenId","type":"uint256","internalType":"uint256"},{"name":"data","type":"bytes","internalType":"bytes"}],"outputs":[],"stateMutability":"nonpayable"},{"type":"function","name":"setApprovalForAll","inputs":[{"name":"operator","type":"address","internalType":"address"},{"name":"approved","type":"bool","internalType":"bool"}],"outputs":[],"stateMutability":"nonpayable"},{"type":"function","name":"supportsInterface","inputs":[{"name":"interfaceId","type":"bytes4","internalType":"bytes4"}],"outputs":[{"name":"","type":"bool","internalType":"bool"}],"stateMutability":"view"},{"type":"function","name":"symbol","inputs":[],"outputs":[{"name":"","type":"string","internalType":"string"}],"stateMutability":"view"},{"type":"function","name":"tokenByIndex","inputs":[{"name":"index","type":"uint256","internalType":"uint256"}],"outputs":[{"name":"","type":"uint256","internalType":"uint256"}],"stateMutability":"view"},{"type":"function","name":"tokenOfOwnerByIndex","inputs":[{"name":"owner","type":"address","internalType":"address"},{"name":"index","type":"uint256","internalType":"uint256"}],"outputs":[{"name":"","type":"uint256","internalType":"uint256"}],"stateMutability":"view"},{"type":"function","name":"tokenURI","inputs":[{"name":"tokenId","type":"uint256","internalType":"uint256"}],"outputs":[{"name":"","type":"string","internalType":"string"}],"stateMutability":"view"},{"type":"function","name":"totalSupply","inputs":[],"outputs":[{"name":"","type":"uint256","internalType":"uint256"}],"stateMutability":"view"},{"type":"function","name":"transferFrom","inputs":[{"name":"from","type":"address","internalType":"address"},{"name":"to","type":"address","internalType":"address"},{"name":"tokenId","type":"uint256","internalType":"uint256"}],"outputs":[],"stateMutability":"nonpayable"},{"type":"function","name":"transferOwnership","inputs":[{"name":"newOwner","type":"address","internalType":"address"}],"outputs":[],"stateMutability":"nonpayable"},{"type":"function","name":"updateStatus","inputs":[{"name":"tokenId","type":"uint256","internalType":"uint256"},{"name":"newStatus","type":"uint8","internalType":"enum Status"}],"outputs":[],"stateMutability":"nonpayable"},{"type":"event","name":"Approval","inputs":[{"name":"owner","type":"address","indexed":true,"internalType":"address"},{"name":"approved","type":"address","indexed":true,"internalType":"address"},{"name":"tokenId","type":"uint256","indexed":true,"internalType":"uint256"}],"anonymous":false},{"type":"event","name":"ApprovalForAll","inputs":[{"name":"owner","type":"address","indexed":true,"internalType":"address"},{"name":"operator","type":"address","indexed":true,"internalType":"address"},{"name":"approved","type":"bool","indexed":false,"internalType":"bool"}],"anonymous":false},{"type":"event","name":"CertificateMinted","inputs":[{"name":"recipient","type":"address","indexed":true,"internalType":"address"},{"name":"certificateId","type":"string","indexed":true,"internalType":"string"},{"name":"level","type":"uint8","indexed":false,"internalType":"enum ICertificateMetadata.Level"},{"name":"validityPeriod","type":"uint256","indexed":false,"internalType":"uint256"},{"name":"price","type":"uint256","indexed":false,"internalType":"uint256"}],"anonymous":false},{"type":"event","name":"CertificateStatusUpdated","inputs":[{"name":"tokenId","type":"uint256","indexed":true,"internalType":"uint256"},{"name":"newStatus","type":"uint8","indexed":false,"internalType":"enum Status"}],"anonymous":false},{"type":"event","name":"OwnershipTransferred","inputs":[{"name":"previousOwner","type":"address","indexed":true,"internalType":"address"},{"name":"newOwner","type":"address","indexed":true,"internalType":"address"}],"anonymous":false},{"type":"event","name":"Transfer","inputs":[{"name":"from","type":"address","indexed":true,"internalType":"address"},{"name":"to","type":"address","indexed":true,"internalType":"address"},{"name":"tokenId","type":"uint256","indexed":true,"internalType":"uint256"}],"anonymous":false},{"type":"error","name":"ECDSAInvalidSignature","inputs":[]},{"type":"error","name":"ECDSAInvalidSignatureLength","inputs":[{"name":"length","type":"uint256","internalType":"uint256"}]},{"type":"error","name":"ECDSAInvalidSignatureS","inputs":[{"name":"s","type":"bytes32","internalType":"bytes32"}]},{"type":"error","name":"ERC721EnumerableForbiddenBatchMint","inputs":[]},{"type":"error","name":"ERC721IncorrectOwner","inputs":[{"name":"sender","type":"address","internalType":"address"},{"name":"tokenId","type":"uint256","internalType":"uint256"},{"name":"owner","type":"address","internalType":"address"}]},{"type":"error","name":"ERC721InsufficientApproval","inputs":[{"name":"operator","type":"address","internalType":"address"},{"name":"tokenId","type":"uint256","internalType":"uint256"}]},{"type":"error","name":"ERC721InvalidApprover","inputs":[{"name":"approver","type":"address","internalType":"address"}]},{"type":"error","name":"ERC721InvalidOperator","inputs":[{"name":"operator","type":"address","internalType":"address"}]},{"type":"error","name":"ERC721InvalidOwner","inputs":[{"name":"owner","type":"address","internalType":"address"}]},{"type":"error","name":"ERC721InvalidReceiver","inputs":[{"name":"receiver","type":"address","internalType":"address"}]},{"type":"error","name":"ERC721InvalidSender","inputs":[{"name":"sender","type":"address","internalType":"address"}]},{"type":"error","name":"ERC721NonexistentToken","inputs":[{"name":"tokenId","type":"uint256","internalType":"uint256"}]},{"type":"error","name":"ERC721OutOfBoundsIndex","inputs":[{"name":"owner","type":"address","internalType":"address"},{"name":"index","type":"uint256","internalType":"uint256"}]},{"type":"error","name":"OwnableInvalidOwner","inputs":[{"name":"owner","type":"address","internalType":"address"}]},{"type":"error","name":"OwnableUnauthorizedAccount","inputs":[{"name":"account","type":"address","internalType":"address"}]}],"bytecode":{"object":"0x60806040523480156200001157600080fd5b50336040518060400160405280600b81526020016a436572746966696361746560a81b8152506040518060400160405280600481526020016310d1549560e21b8152508160009081620000659190620001af565b506001620000748282620001af565b5050506001600160a01b038116620000a657604051631e4fbdf760e01b81526000600482015260240160405180910390fd5b620000b181620000b8565b506200027b565b600a80546001600160a01b038381166001600160a01b0319831681179093556040519116919082907f8be0079c531659141344cd1fd0a4f28419497f9722a3daafe3b4186f6b6457e090600090a35050565b634e487b7160e01b600052604160045260246000fd5b600181811c908216806200013557607f821691505b6020821081036200015657634e487b7160e01b600052602260045260246000fd5b50919050565b601f821115620001aa57600081815260208120601f850160051c81016020861015620001855750805b601f850160051c820191505b81811015620001a65782815560010162000191565b5050505b505050565b81516001600160401b03811115620001cb57620001cb6200010a565b620001e381620001dc845462000120565b846200015c565b602080601f8311600181146200021b5760008415620002025750858301515b600019600386901b1c1916600185901b178555620001a6565b600085815260208120601f198616915b828110156200024c578886015182559484019460019091019084016200022b565b50858210156200026b5787850151600019600388901b60f8161c191681555b5050505050600190811b01905550565b6123e6806200028b6000396000f3fe6080604052600436106101665760003560e01c806370a08231116100d1578063b88d4fde1161008a578063e620f9e311610064578063e620f9e314610425578063e985e9c514610456578063f2fde38b14610476578063ff51993d1461049657600080fd5b8063b88d4fde146103b6578063c76f473b146103d6578063c87b56dd1461040557600080fd5b806370a082311461030e578063715018a61461032e5780638a765f5c146103435780638da5cb5b1461036357806395d89b4114610381578063a22cb4651461039657600080fd5b80632f745c59116101235780632f745c591461025b578063340844f41461027b5780633a1b3d311461028e57806342842e0e146102ae5780634f6ccce7146102ce5780636352211e146102ee57600080fd5b806301ffc9a71461016b57806306fdde03146101a0578063081812fc146101c2578063095ea7b3146101fa57806318160ddd1461021c57806323b872dd1461023b575b600080fd5b34801561017757600080fd5b5061018b610186366004611c09565b6104b6565b60405190151581526020015b60405180910390f35b3480156101ac57600080fd5b506101b56104e1565b6040516101979190611c76565b3480156101ce57600080fd5b506101e26101dd366004611c89565b610573565b6040516001600160a01b039091168152602001610197565b34801561020657600080fd5b5061021a610215366004611cbe565b61059c565b005b34801561022857600080fd5b506008545b604051908152602001610197565b34801561024757600080fd5b5061021a610256366004611ce8565b6105ab565b34801561026757600080fd5b5061022d610276366004611cbe565b61063b565b61021a610289366004611dc7565b6106a0565b34801561029a57600080fd5b5061021a6102a9366004611e66565b610975565b3480156102ba57600080fd5b5061021a6102c9366004611ce8565b610a1a565b3480156102da57600080fd5b5061022d6102e9366004611c89565b610a3a565b3480156102fa57600080fd5b506101e2610309366004611c89565b610a93565b34801561031a57600080fd5b5061022d610329366004611e9a565b610a9e565b34801561033a57600080fd5b5061021a610ae6565b34801561034f57600080fd5b5061021a61035e366004611c89565b610afa565b34801561036f57600080fd5b50600a546001600160a01b03166101e2565b34801561038d57600080fd5b506101b5610b76565b3480156103a257600080fd5b5061021a6103b1366004611eb5565b610b85565b3480156103c257600080fd5b5061021a6103d1366004611ee6565b610b90565b3480156103e257600080fd5b506103f66103f1366004611f4e565b610ba8565b60405161019793929190611fc6565b34801561041157600080fd5b506101b5610420366004611c89565b610d58565b34801561043157600080fd5b50610445610440366004611c89565b610dcd565b604051610197959493929190611ffa565b34801561046257600080fd5b5061018b61047136600461203f565b610f8d565b34801561048257600080fd5b5061021a610491366004611e9a565b610fbb565b3480156104a257600080fd5b5061022d6104b1366004611f4e565b610ff9565b60006001600160e01b0319821663780e9d6360e01b14806104db57506104db8261102d565b92915050565b6060600080546104f090612072565b80601f016020809104026020016040519081016040528092919081815260200182805461051c90612072565b80156105695780601f1061053e57610100808354040283529160200191610569565b820191906000526020600020905b81548152906001019060200180831161054c57829003601f168201915b5050505050905090565b600061057e8261107d565b506000828152600460205260409020546001600160a01b03166104db565b6105a78282336110b6565b5050565b6001600160a01b0382166105da57604051633250574960e11b8152600060048201526024015b60405180910390fd5b60006105e78383336110c3565b9050836001600160a01b0316816001600160a01b031614610635576040516364283d7b60e01b81526001600160a01b03808616600483015260248201849052821660448201526064016105d1565b50505050565b600061064683610a9e565b82106106775760405163295f44f760e21b81526001600160a01b0384166004820152602481018390526044016105d1565b506001600160a01b03919091166000908152600660209081526040808320938352929052205490565b813410156106e05760405162461bcd60e51b815260206004820152600d60248201526c496e76616c696420707269636560981b60448201526064016105d1565b60006106ec8787610ff9565b6000818152600b60205260409020600101549091501561074e5760405162461bcd60e51b815260206004820152601a60248201527f436572746966696361746520616c72656164792065786973747300000000000060448201526064016105d1565b600087878787876040516020016107699594939291906120ac565b60405160208183030381529060405280519060200120905060006107ba827f19457468657265756d205369676e6564204d6573736167653a0a3332000000006000908152601c91909152603c902090565b90506107ce600a546001600160a01b031690565b6001600160a01b03166107e18286611198565b6001600160a01b03161461082b5760405162461bcd60e51b8152602060048201526011602482015270496e76616c6964207369676e617475726560781b60448201526064016105d1565b60006108378742612121565b6040805160a0810182528b8152426020820152908101829052909150606081016000815260200189600381111561087057610870611f9c565b90526000858152600b602052604090208151819061088e908261217a565b50602082015181600101556040820151816002015560608201518160030160006101000a81548160ff021916908360028111156108cd576108cd611f9c565b021790555060808201518160030160016101000a81548160ff021916908360038111156108fc576108fc611f9c565b021790555090505061090e8a856111c2565b8860405161091c919061223a565b60405180910390208a6001600160a01b03167fd51961a043de24fcd2d22d4094a6882d5b5d6846d917a78432178f206036ad608a8a8a60405161096193929190612256565b60405180910390a350505050505050505050565b61097d611227565b6000828152600b60205260409020600101546109ab5760405162461bcd60e51b81526004016105d190612275565b6000828152600b60205260409020600301805482919060ff191660018360028111156109d9576109d9611f9c565b0217905550817f4e3d8b778ff11cc7c284623d44f1da1de0092dbc812b71905a4f50e1de4fe29782604051610a0e91906122ac565b60405180910390a25050565b610a3583838360405180602001604052806000815250610b90565b505050565b6000610a4560085490565b8210610a6e5760405163295f44f760e21b815260006004820152602481018390526044016105d1565b60088281548110610a8157610a816122ba565b90600052602060002001549050919050565b60006104db8261107d565b60006001600160a01b038216610aca576040516322718ad960e21b8152600060048201526024016105d1565b506001600160a01b031660009081526003602052604090205490565b610aee611227565b610af86000611254565b565b6000818152600b6020526040902060010154610b285760405162461bcd60e51b81526004016105d190612275565b6000818152600b6020526040812090600382015460ff166002811115610b5057610b50611f9c565b148015610b605750806002015442115b156105a757600301805460ff1916600117905550565b6060600180546104f090612072565b6105a73383836112a6565b610b9b8484846105ab565b6106353385858585611345565b600080600080610bb88686610ff9565b6000818152600b6020526040902060010154909150610be35760006001600093509350935050610d51565b6000818152600b6020526040808220815160a08101909252805482908290610c0a90612072565b80601f0160208091040260200160405190810160405280929190818152602001828054610c3690612072565b8015610c835780601f10610c5857610100808354040283529160200191610c83565b820191906000526020600020905b815481529060010190602001808311610c6657829003601f168201915b5050509183525050600182015460208201526002808301546040830152600383015460609092019160ff1690811115610cbe57610cbe611f9c565b6002811115610ccf57610ccf611f9c565b81526020016003820160019054906101000a900460ff166003811115610cf757610cf7611f9c565b6003811115610d0857610d08611f9c565b90525060608101519091506000816002811115610d2757610d27611f9c565b148015610d375750816040015142115b15610d40575060015b604090910151600195509093509150505b9250925092565b6060610d638261107d565b506000610d7b60408051602081019091526000815290565b90506000815111610d9b5760405180602001604052806000815250610dc6565b80610da584611470565b604051602001610db69291906122d0565b6040516020818303038152906040525b9392505050565b6060600080600080610df0866000908152600b6020526040902060010154151590565b610e0c5760405162461bcd60e51b81526004016105d190612275565b6000868152600b6020526040808220815160a08101909252805482908290610e3390612072565b80601f0160208091040260200160405190810160405280929190818152602001828054610e5f90612072565b8015610eac5780601f10610e8157610100808354040283529160200191610eac565b820191906000526020600020905b815481529060010190602001808311610e8f57829003601f168201915b5050509183525050600182015460208201526002808301546040830152600383015460609092019160ff1690811115610ee757610ee7611f9c565b6002811115610ef857610ef8611f9c565b81526020016003820160019054906101000a900460ff166003811115610f2057610f20611f9c565b6003811115610f3157610f31611f9c565b90525060608101519091506000816002811115610f5057610f50611f9c565b148015610f605750816040015142115b15610f69575060015b815160208301516040840151608090940151919a9099509297509095509350915050565b6001600160a01b03918216600090815260056020908152604080832093909416825291909152205460ff1690565b610fc3611227565b6001600160a01b038116610fed57604051631e4fbdf760e01b8152600060048201526024016105d1565b610ff681611254565b50565b6000828260405160200161100e9291906122ff565b60408051601f1981840301815291905280516020909101209392505050565b60006001600160e01b031982166380ac58cd60e01b148061105e57506001600160e01b03198216635b5e139f60e01b145b806104db57506301ffc9a760e01b6001600160e01b03198316146104db565b6000818152600260205260408120546001600160a01b0316806104db57604051637e27328960e01b8152600481018490526024016105d1565b610a358383836001611503565b6000806110d1858585611609565b90506001600160a01b03811661112e5761112984600880546000838152600960205260408120829055600182018355919091527ff3f7a9fe364faab93b216da50a3214154f22a0a2b415b23a84c8169e8b636ee30155565b611151565b846001600160a01b0316816001600160a01b031614611151576111518185611702565b6001600160a01b03851661116d5761116884611783565b611190565b846001600160a01b0316816001600160a01b031614611190576111908585611832565b949350505050565b6000806000806111a88686611882565b9250925092506111b882826118cc565b5090949350505050565b6001600160a01b0382166111ec57604051633250574960e11b8152600060048201526024016105d1565b60006111fa838360006110c3565b90506001600160a01b03811615610a35576040516339e3563760e11b8152600060048201526024016105d1565b600a546001600160a01b03163314610af85760405163118cdaa760e01b81523360048201526024016105d1565b600a80546001600160a01b038381166001600160a01b0319831681179093556040519116919082907f8be0079c531659141344cd1fd0a4f28419497f9722a3daafe3b4186f6b6457e090600090a35050565b6001600160a01b0382166112d857604051630b61174360e31b81526001600160a01b03831660048201526024016105d1565b6001600160a01b03838116600081815260056020908152604080832094871680845294825291829020805460ff191686151590811790915591519182527f17307eab39ab6107e8899845ad3d59bd9653f200f220920489ca2b5937696c31910160405180910390a3505050565b6001600160a01b0383163b1561146957604051630a85bd0160e11b81526001600160a01b0384169063150b7a0290611387908890889087908790600401612337565b6020604051808303816000875af19250505080156113c2575060408051601f3d908101601f191682019092526113bf9181019061236a565b60015b61142b573d8080156113f0576040519150601f19603f3d011682016040523d82523d6000602084013e6113f5565b606091505b50805160000361142357604051633250574960e11b81526001600160a01b03851660048201526024016105d1565b805181602001fd5b6001600160e01b03198116630a85bd0160e11b1461146757604051633250574960e11b81526001600160a01b03851660048201526024016105d1565b505b5050505050565b6060600061147d83611985565b600101905060008167ffffffffffffffff81111561149d5761149d611d24565b6040519080825280601f01601f1916602001820160405280156114c7576020820181803683370190505b5090508181016020015b600019016f181899199a1a9b1b9c1cb0b131b232b360811b600a86061a8153600a85049450846114d157509392505050565b808061151757506001600160a01b03821615155b156115d95760006115278461107d565b90506001600160a01b038316158015906115535750826001600160a01b0316816001600160a01b031614155b801561156657506115648184610f8d565b155b1561158f5760405163a9fbf51f60e01b81526001600160a01b03841660048201526024016105d1565b81156115d75783856001600160a01b0316826001600160a01b03167f8c5be1e5ebec7d5bd14f71427d1e84f3dd0314c0f7b2291e5b200ac8c7c3b92560405160405180910390a45b505b5050600090815260046020526040902080546001600160a01b0319166001600160a01b0392909216919091179055565b6000828152600260205260408120546001600160a01b039081169083161561163657611636818486611a5d565b6001600160a01b0381161561167457611653600085600080611503565b6001600160a01b038116600090815260036020526040902080546000190190555b6001600160a01b038516156116a3576001600160a01b0385166000908152600360205260409020805460010190555b60008481526002602052604080822080546001600160a01b0319166001600160a01b0389811691821790925591518793918516917fddf252ad1be2c89b69c2b068fc378daa952ba7f163c4a11628f55a4df523b3ef91a4949350505050565b600061170d83610a9e565b6000838152600760209081526040808320546001600160a01b038816845260069092529091209192509081831461176457600083815260208281526040808320548584528184208190558352600790915290208290555b6000938452600760209081526040808620869055938552525081205550565b60085460009061179590600190612387565b600083815260096020526040812054600880549394509092849081106117bd576117bd6122ba565b9060005260206000200154905080600883815481106117de576117de6122ba565b60009182526020808320909101929092558281526009909152604080822084905585825281205560088054806118165761181661239a565b6001900381819060005260206000200160009055905550505050565b6000600161183f84610a9e565b6118499190612387565b6001600160a01b039093166000908152600660209081526040808320868452825280832085905593825260079052919091209190915550565b600080600083516041036118bc5760208401516040850151606086015160001a6118ae88828585611ac1565b955095509550505050610d51565b5050815160009150600290610d51565b60008260038111156118e0576118e0611f9c565b036118e9575050565b60018260038111156118fd576118fd611f9c565b0361191b5760405163f645eedf60e01b815260040160405180910390fd5b600282600381111561192f5761192f611f9c565b036119505760405163fce698f760e01b8152600481018290526024016105d1565b600382600381111561196457611964611f9c565b036105a7576040516335e2f38360e21b8152600481018290526024016105d1565b60008072184f03e93ff9f4daa797ed6e38ed64bf6a1f0160401b83106119c45772184f03e93ff9f4daa797ed6e38ed64bf6a1f0160401b830492506040015b6d04ee2d6d415b85acef810000000083106119f0576d04ee2d6d415b85acef8100000000830492506020015b662386f26fc100008310611a0e57662386f26fc10000830492506010015b6305f5e1008310611a26576305f5e100830492506008015b6127108310611a3a57612710830492506004015b60648310611a4c576064830492506002015b600a83106104db5760010192915050565b611a68838383611b90565b610a35576001600160a01b038316611a9657604051637e27328960e01b8152600481018290526024016105d1565b60405163177e802f60e01b81526001600160a01b0383166004820152602481018290526044016105d1565b600080807f7fffffffffffffffffffffffffffffff5d576e7357a4501ddfe92f46681b20a0841115611afc5750600091506003905082611b86565b604080516000808252602082018084528a905260ff891692820192909252606081018790526080810186905260019060a0016020604051602081039080840390855afa158015611b50573d6000803e3d6000fd5b5050604051601f1901519150506001600160a01b038116611b7c57506000925060019150829050611b86565b9250600091508190505b9450945094915050565b60006001600160a01b038316158015906111905750826001600160a01b0316846001600160a01b03161480611bca5750611bca8484610f8d565b806111905750506000908152600460205260409020546001600160a01b03908116911614919050565b6001600160e01b031981168114610ff657600080fd5b600060208284031215611c1b57600080fd5b8135610dc681611bf3565b60005b83811015611c41578181015183820152602001611c29565b50506000910152565b60008151808452611c62816020860160208601611c26565b601f01601f19169290920160200192915050565b602081526000610dc66020830184611c4a565b600060208284031215611c9b57600080fd5b5035919050565b80356001600160a01b0381168114611cb957600080fd5b919050565b60008060408385031215611cd157600080fd5b611cda83611ca2565b946020939093013593505050565b600080600060608486031215611cfd57600080fd5b611d0684611ca2565b9250611d1460208501611ca2565b9150604084013590509250925092565b634e487b7160e01b600052604160045260246000fd5b600082601f830112611d4b57600080fd5b813567ffffffffffffffff80821115611d6657611d66611d24565b604051601f8301601f19908116603f01168101908282118183101715611d8e57611d8e611d24565b81604052838152866020858801011115611da757600080fd5b836020870160208301376000602085830101528094505050505092915050565b60008060008060008060c08789031215611de057600080fd5b611de987611ca2565b9550602087013567ffffffffffffffff80821115611e0657600080fd5b611e128a838b01611d3a565b96506040890135915060048210611e2857600080fd5b909450606088013593506080880135925060a08801359080821115611e4c57600080fd5b50611e5989828a01611d3a565b9150509295509295509295565b60008060408385031215611e7957600080fd5b82359150602083013560038110611e8f57600080fd5b809150509250929050565b600060208284031215611eac57600080fd5b610dc682611ca2565b60008060408385031215611ec857600080fd5b611ed183611ca2565b915060208301358015158114611e8f57600080fd5b60008060008060808587031215611efc57600080fd5b611f0585611ca2565b9350611f1360208601611ca2565b925060408501359150606085013567ffffffffffffffff811115611f3657600080fd5b611f4287828801611d3a565b91505092959194509250565b60008060408385031215611f6157600080fd5b611f6a83611ca2565b9150602083013567ffffffffffffffff811115611f8657600080fd5b611f9285828601611d3a565b9150509250929050565b634e487b7160e01b600052602160045260246000fd5b60038110611fc257611fc2611f9c565b9052565b831515815260608101611fdc6020830185611fb2565b826040830152949350505050565b60048110611fc257611fc2611f9c565b60a08152600061200d60a0830188611c4a565b90508560208301528460408301526120286060830185611fb2565b6120356080830184611fea565b9695505050505050565b6000806040838503121561205257600080fd5b61205b83611ca2565b915061206960208401611ca2565b90509250929050565b600181811c9082168061208657607f821691505b6020821081036120a657634e487b7160e01b600052602260045260246000fd5b50919050565b6bffffffffffffffffffffffff198660601b168152600085516120d6816014850160208a01611c26565b8201600486106120e8576120e8611f9c565b60f89590951b601486015250506015830191909152603582015260550192915050565b634e487b7160e01b600052601160045260246000fd5b808201808211156104db576104db61210b565b601f821115610a3557600081815260208120601f850160051c8101602086101561215b5750805b601f850160051c820191505b8181101561146757828155600101612167565b815167ffffffffffffffff81111561219457612194611d24565b6121a8816121a28454612072565b84612134565b602080601f8311600181146121dd57600084156121c55750858301515b600019600386901b1c1916600185901b178555611467565b600085815260208120601f198616915b8281101561220c578886015182559484019460019091019084016121ed565b508582101561222a5787850151600019600388901b60f8161c191681555b5050505050600190811b01905550565b6000825161224c818460208701611c26565b9190910192915050565b606081016122648286611fea565b602082019390935260400152919050565b6020808252601a908201527f436572746966696361746520646f6573206e6f74206578697374000000000000604082015260600190565b602081016104db8284611fb2565b634e487b7160e01b600052603260045260246000fd5b600083516122e2818460208801611c26565b8351908301906122f6818360208801611c26565b01949350505050565b6bffffffffffffffffffffffff198360601b16815260008251612329816014850160208701611c26565b919091016014019392505050565b6001600160a01b038581168252841660208201526040810183905260806060820181905260009061203590830184611c4a565b60006020828403121561237c57600080fd5b8151610dc681611bf3565b818103818111156104db576104db61210b565b634e487b7160e01b600052603160045260246000fdfea2646970667358221220bcdb6a6ca522a9c7c264c34c63185e4887c5da3febd154e15cea28717633567f64736f6c63430008140033","linkReferences":{}},"methodIdentifiers":{"approve(address,uint256)":"095ea7b3","balanceOf(address)":"70a08231","checkAndUpdateExpiry(uint256)":"8a765f5c","checkCertificateStatus(address,string)":"c76f473b","generateTokenId(address,string)":"ff51993d","getApproved(uint256)":"081812fc","getCertificateInfo(uint256)":"e620f9e3","isApprovedForAll(address,address)":"e985e9c5","mint(address,string,uint8,uint256,uint256,bytes)":"340844f4","name()":"06fdde03","owner()":"8da5cb5b","ownerOf(uint256)":"6352211e","renounceOwnership()":"715018a6","safeTransferFrom(address,address,uint256)":"42842e0e","safeTransferFrom(address,address,uint256,bytes)":"b88d4fde","setApprovalForAll(address,bool)":"a22cb465","supportsInterface(bytes4)":"01ffc9a7","symbol()":"95d89b41","tokenByIndex(uint256)":"4f6ccce7","tokenOfOwnerByIndex(address,uint256)":"2f745c59","tokenURI(uint256)":"c87b56dd","totalSupply()":"18160ddd","transferFrom(address,address,uint256)":"23b872dd","transferOwnership(address)":"f2fde38b","updateStatus(uint256,uint8)":"3a1b3d31"},"id":44}